{
  "contractName": "ExchangeNFT",
  "abi": [
    {
      "inputs": [],
      "stateMutability": "nonpayable",
      "type": "constructor"
    },
    {
      "anonymous": false,
      "inputs": [
        {
          "indexed": false,
          "internalType": "address",
          "name": "winner",
          "type": "address"
        },
        {
          "indexed": false,
          "internalType": "address",
          "name": "collection",
          "type": "address"
        },
        {
          "indexed": false,
          "internalType": "uint256",
          "name": "tokenId",
          "type": "uint256"
        },
        {
          "indexed": false,
          "internalType": "address",
          "name": "crypto",
          "type": "address"
        },
        {
          "indexed": false,
          "internalType": "uint256",
          "name": "amount",
          "type": "uint256"
        }
      ],
      "name": "AuctionFinish",
      "type": "event"
    },
    {
      "anonymous": false,
      "inputs": [
        {
          "indexed": false,
          "internalType": "address",
          "name": "collection",
          "type": "address"
        },
        {
          "indexed": false,
          "internalType": "address",
          "name": "newOwner",
          "type": "address"
        },
        {
          "indexed": false,
          "internalType": "uint256",
          "name": "tokenId",
          "type": "uint256"
        },
        {
          "indexed": false,
          "internalType": "address",
          "name": "crypto",
          "type": "address"
        },
        {
          "indexed": false,
          "internalType": "uint256",
          "name": "price",
          "type": "uint256"
        },
        {
          "indexed": false,
          "internalType": "bool",
          "name": "isNative",
          "type": "bool"
        }
      ],
      "name": "Bought",
      "type": "event"
    },
    {
      "anonymous": false,
      "inputs": [
        {
          "indexed": true,
          "internalType": "uint256",
          "name": "fee",
          "type": "uint256"
        },
        {
          "indexed": true,
          "internalType": "uint256",
          "name": "_cancelFee",
          "type": "uint256"
        },
        {
          "indexed": true,
          "internalType": "uint256",
          "name": "_acceptFee",
          "type": "uint256"
        }
      ],
      "name": "Fee",
      "type": "event"
    },
    {
      "anonymous": false,
      "inputs": [
        {
          "indexed": false,
          "internalType": "address",
          "name": "owner",
          "type": "address"
        },
        {
          "indexed": false,
          "internalType": "address",
          "name": "collection",
          "type": "address"
        },
        {
          "indexed": false,
          "internalType": "uint256",
          "name": "tokenId",
          "type": "uint256"
        },
        {
          "indexed": false,
          "internalType": "address",
          "name": "crypto",
          "type": "address"
        },
        {
          "indexed": false,
          "internalType": "uint256",
          "name": "amount",
          "type": "uint256"
        }
      ],
      "name": "HigherBid",
      "type": "event"
    },
    {
      "anonymous": false,
      "inputs": [
        {
          "indexed": true,
          "internalType": "address",
          "name": "holder",
          "type": "address"
        }
      ],
      "name": "Holder",
      "type": "event"
    },
    {
      "anonymous": false,
      "inputs": [
        {
          "indexed": false,
          "internalType": "address",
          "name": "holder",
          "type": "address"
        },
        {
          "indexed": false,
          "internalType": "address",
          "name": "oracle",
          "type": "address"
        },
        {
          "indexed": false,
          "internalType": "uint256",
          "name": "cancelFee",
          "type": "uint256"
        },
        {
          "indexed": false,
          "internalType": "uint256",
          "name": "acceptFee",
          "type": "uint256"
        },
        {
          "indexed": false,
          "internalType": "uint256",
          "name": "fee",
          "type": "uint256"
        },
        {
          "indexed": false,
          "internalType": "bool",
          "name": "isNative",
          "type": "bool"
        }
      ],
      "name": "Initialize",
      "type": "event"
    },
    {
      "anonymous": false,
      "inputs": [
        {
          "indexed": true,
          "internalType": "address",
          "name": "oracle",
          "type": "address"
        }
      ],
      "name": "Oracle",
      "type": "event"
    },
    {
      "anonymous": false,
      "inputs": [
        {
          "indexed": true,
          "internalType": "address",
          "name": "previousOwner",
          "type": "address"
        },
        {
          "indexed": true,
          "internalType": "address",
          "name": "newOwner",
          "type": "address"
        }
      ],
      "name": "OwnershipTransferred",
      "type": "event"
    },
    {
      "anonymous": false,
      "inputs": [
        {
          "indexed": false,
          "internalType": "address",
          "name": "account",
          "type": "address"
        }
      ],
      "name": "Paused",
      "type": "event"
    },
    {
      "anonymous": false,
      "inputs": [
        {
          "indexed": false,
          "internalType": "address",
          "name": "owner",
          "type": "address"
        },
        {
          "indexed": false,
          "internalType": "uint256",
          "name": "tokenId",
          "type": "uint256"
        },
        {
          "indexed": false,
          "internalType": "address",
          "name": "collection",
          "type": "address"
        },
        {
          "indexed": false,
          "internalType": "uint256",
          "name": "price",
          "type": "uint256"
        },
        {
          "indexed": false,
          "internalType": "bool",
          "name": "onSale",
          "type": "bool"
        },
        {
          "indexed": false,
          "internalType": "bool",
          "name": "onAuction",
          "type": "bool"
        },
        {
          "indexed": false,
          "internalType": "uint256",
          "name": "timeLive",
          "type": "uint256"
        },
        {
          "indexed": false,
          "internalType": "uint256",
          "name": "startDate",
          "type": "uint256"
        },
        {
          "indexed": false,
          "internalType": "uint256",
          "name": "startBid",
          "type": "uint256"
        },
        {
          "indexed": false,
          "internalType": "bool",
          "name": "startNow",
          "type": "bool"
        },
        {
          "indexed": false,
          "internalType": "bool",
          "name": "is721",
          "type": "bool"
        }
      ],
      "name": "SettingNFTActivated",
      "type": "event"
    },
    {
      "anonymous": false,
      "inputs": [
        {
          "indexed": false,
          "internalType": "address",
          "name": "account",
          "type": "address"
        }
      ],
      "name": "Unpaused",
      "type": "event"
    },
    {
      "inputs": [],
      "name": "acceptFee",
      "outputs": [
        {
          "internalType": "uint256",
          "name": "",
          "type": "uint256"
        }
      ],
      "stateMutability": "view",
      "type": "function"
    },
    {
      "inputs": [
        {
          "internalType": "address",
          "name": "collection",
          "type": "address"
        },
        {
          "internalType": "uint256",
          "name": "tokenId",
          "type": "uint256"
        },
        {
          "internalType": "bool",
          "name": "is721",
          "type": "bool"
        },
        {
          "internalType": "address",
          "name": "offerOwner",
          "type": "address"
        }
      ],
      "name": "acceptOffer",
      "outputs": [
        {
          "internalType": "bool",
          "name": "",
          "type": "bool"
        }
      ],
      "stateMutability": "payable",
      "type": "function"
    },
    {
      "inputs": [
        {
          "internalType": "address",
          "name": "collection",
          "type": "address"
        },
        {
          "internalType": "uint256",
          "name": "tokenId",
          "type": "uint256"
        },
        {
          "internalType": "uint256",
          "name": "price",
          "type": "uint256"
        },
        {
          "internalType": "uint256",
          "name": "startBid",
          "type": "uint256"
        },
        {
          "internalType": "uint256",
          "name": "timeLive",
          "type": "uint256"
        },
        {
          "internalType": "bool",
          "name": "startNow",
          "type": "bool"
        },
        {
          "internalType": "bool",
          "name": "is721",
          "type": "bool"
        }
      ],
      "name": "activeSettingOfNFT",
      "outputs": [
        {
          "internalType": "bool",
          "name": "",
          "type": "bool"
        }
      ],
      "stateMutability": "payable",
      "type": "function"
    },
    {
      "inputs": [
        {
          "internalType": "address",
          "name": "collection",
          "type": "address"
        },
        {
          "internalType": "address",
          "name": "owner",
          "type": "address"
        },
        {
          "internalType": "uint256",
          "name": "tokenId",
          "type": "uint256"
        },
        {
          "internalType": "uint256",
          "name": "price",
          "type": "uint256"
        },
        {
          "internalType": "uint256",
          "name": "startBid",
          "type": "uint256"
        },
        {
          "internalType": "uint256",
          "name": "timeLive",
          "type": "uint256"
        },
        {
          "internalType": "bool",
          "name": "is721",
          "type": "bool"
        }
      ],
      "name": "activeSettingOfNFTByOwner",
      "outputs": [
        {
          "internalType": "bool",
          "name": "",
          "type": "bool"
        }
      ],
      "stateMutability": "nonpayable",
      "type": "function"
    },
    {
      "inputs": [
        {
          "internalType": "address",
          "name": "crypto",
          "type": "address"
        },
        {
          "internalType": "address",
          "name": "newOracle",
          "type": "address"
        },
        {
          "internalType": "bool",
          "name": "isUSD",
          "type": "bool"
        }
      ],
      "name": "addCrypto",
      "outputs": [
        {
          "internalType": "bool",
          "name": "",
          "type": "bool"
        }
      ],
      "stateMutability": "nonpayable",
      "type": "function"
    },
    {
      "inputs": [
        {
          "internalType": "address",
          "name": "collection",
          "type": "address"
        },
        {
          "internalType": "uint256",
          "name": "tokenId",
          "type": "uint256"
        },
        {
          "internalType": "address",
          "name": "crypto",
          "type": "address"
        },
        {
          "internalType": "uint256",
          "name": "amount",
          "type": "uint256"
        },
        {
          "internalType": "uint256",
          "name": "timeLive",
          "type": "uint256"
        },
        {
          "internalType": "bool",
          "name": "is721",
          "type": "bool"
        }
      ],
      "name": "addOffer",
      "outputs": [
        {
          "internalType": "bool",
          "name": "",
          "type": "bool"
        }
      ],
      "stateMutability": "payable",
      "type": "function"
    },
    {
      "inputs": [
        {
          "internalType": "address",
          "name": "collection",
          "type": "address"
        },
        {
          "internalType": "uint256",
          "name": "tokenId",
          "type": "uint256"
        },
        {
          "internalType": "address",
          "name": "crypto",
          "type": "address"
        },
        {
          "internalType": "uint256",
          "name": "amount",
          "type": "uint256"
        }
      ],
      "name": "bid",
      "outputs": [
        {
          "internalType": "bool",
          "name": "",
          "type": "bool"
        }
      ],
      "stateMutability": "payable",
      "type": "function"
    },
    {
      "inputs": [
        {
          "internalType": "address",
          "name": "collection",
          "type": "address"
        },
        {
          "internalType": "uint256",
          "name": "tokenId",
          "type": "uint256"
        },
        {
          "internalType": "address",
          "name": "crypto",
          "type": "address"
        },
        {
          "internalType": "bool",
          "name": "isNative",
          "type": "bool"
        }
      ],
      "name": "buyNow",
      "outputs": [
        {
          "internalType": "bool",
          "name": "",
          "type": "bool"
        }
      ],
      "stateMutability": "payable",
      "type": "function"
    },
    {
      "inputs": [],
      "name": "cancelFee",
      "outputs": [
        {
          "internalType": "uint256",
          "name": "",
          "type": "uint256"
        }
      ],
      "stateMutability": "view",
      "type": "function"
    },
    {
      "inputs": [
        {
          "internalType": "address",
          "name": "",
          "type": "address"
        }
      ],
      "name": "cryptos",
      "outputs": [
        {
          "internalType": "contract ChainLinkOracle",
          "name": "oracle",
          "type": "address"
        },
        {
          "internalType": "address",
          "name": "crypto",
          "type": "address"
        },
        {
          "internalType": "uint8",
          "name": "status",
          "type": "uint8"
        },
        {
          "internalType": "bool",
          "name": "isUSD",
          "type": "bool"
        }
      ],
      "stateMutability": "view",
      "type": "function"
    },
    {
      "inputs": [
        {
          "internalType": "address",
          "name": "collection",
          "type": "address"
        },
        {
          "internalType": "uint256",
          "name": "tokenId",
          "type": "uint256"
        }
      ],
      "name": "deleteAuction",
      "outputs": [
        {
          "internalType": "bool",
          "name": "",
          "type": "bool"
        }
      ],
      "stateMutability": "nonpayable",
      "type": "function"
    },
    {
      "inputs": [
        {
          "internalType": "address",
          "name": "collection",
          "type": "address"
        },
        {
          "internalType": "uint256",
          "name": "tokenId",
          "type": "uint256"
        }
      ],
      "name": "endAuction",
      "outputs": [
        {
          "internalType": "bool",
          "name": "",
          "type": "bool"
        }
      ],
      "stateMutability": "payable",
      "type": "function"
    },
    {
      "inputs": [
        {
          "internalType": "address",
          "name": "collection",
          "type": "address"
        },
        {
          "internalType": "uint256",
          "name": "tokenId",
          "type": "uint256"
        }
      ],
      "name": "endAuctionByOwner",
      "outputs": [
        {
          "internalType": "bool",
          "name": "",
          "type": "bool"
        }
      ],
      "stateMutability": "nonpayable",
      "type": "function"
    },
    {
      "inputs": [
        {
          "internalType": "address",
          "name": "tokenOwner",
          "type": "address"
        },
        {
          "internalType": "address",
          "name": "collection",
          "type": "address"
        },
        {
          "internalType": "uint256",
          "name": "tokenId",
          "type": "uint256"
        },
        {
          "internalType": "address",
          "name": "crypto",
          "type": "address"
        },
        {
          "internalType": "uint256",
          "name": "bidAmount",
          "type": "uint256"
        },
        {
          "internalType": "address",
          "name": "erc20owner",
          "type": "address"
        }
      ],
      "name": "endAuctionByOwnerSelectWinner1155",
      "outputs": [
        {
          "internalType": "bool",
          "name": "",
          "type": "bool"
        }
      ],
      "stateMutability": "nonpayable",
      "type": "function"
    },
    {
      "inputs": [
        {
          "internalType": "address",
          "name": "tokenOwner",
          "type": "address"
        },
        {
          "internalType": "address",
          "name": "collection",
          "type": "address"
        },
        {
          "internalType": "uint256",
          "name": "tokenId",
          "type": "uint256"
        },
        {
          "internalType": "address",
          "name": "crypto",
          "type": "address"
        },
        {
          "internalType": "uint256",
          "name": "bidAmount",
          "type": "uint256"
        },
        {
          "internalType": "address",
          "name": "erc20owner",
          "type": "address"
        }
      ],
      "name": "endAuctionByOwnerSelectWinner721",
      "outputs": [
        {
          "internalType": "bool",
          "name": "",
          "type": "bool"
        }
      ],
      "stateMutability": "nonpayable",
      "type": "function"
    },
    {
      "inputs": [],
      "name": "fee",
      "outputs": [
        {
          "internalType": "uint256",
          "name": "",
          "type": "uint256"
        }
      ],
      "stateMutability": "view",
      "type": "function"
    },
    {
      "inputs": [
        {
          "internalType": "uint256",
          "name": "amount",
          "type": "uint256"
        },
        {
          "internalType": "address",
          "name": "_base",
          "type": "address"
        },
        {
          "internalType": "address",
          "name": "_quote",
          "type": "address"
        }
      ],
      "name": "getPriceInUSD",
      "outputs": [
        {
          "internalType": "uint256",
          "name": "",
          "type": "uint256"
        }
      ],
      "stateMutability": "view",
      "type": "function"
    },
    {
      "inputs": [
        {
          "internalType": "address",
          "name": "collection",
          "type": "address"
        },
        {
          "internalType": "uint256",
          "name": "tokenId",
          "type": "uint256"
        },
        {
          "internalType": "address",
          "name": "_base",
          "type": "address"
        },
        {
          "internalType": "address",
          "name": "_quote",
          "type": "address"
        }
      ],
      "name": "getPriceNFTInUSD",
      "outputs": [
        {
          "internalType": "uint256",
          "name": "",
          "type": "uint256"
        }
      ],
      "stateMutability": "view",
      "type": "function"
    },
    {
      "inputs": [
        {
          "internalType": "address",
          "name": "collection",
          "type": "address"
        },
        {
          "internalType": "uint256",
          "name": "tokenId",
          "type": "uint256"
        }
      ],
      "name": "getSetting",
      "outputs": [
        {
          "components": [
            {
              "internalType": "address",
              "name": "owner",
              "type": "address"
            },
            {
              "internalType": "uint256",
              "name": "tokenId",
              "type": "uint256"
            },
            {
              "internalType": "address",
              "name": "collection",
              "type": "address"
            },
            {
              "internalType": "uint256",
              "name": "price",
              "type": "uint256"
            },
            {
              "internalType": "bool",
              "name": "onSale",
              "type": "bool"
            },
            {
              "internalType": "bool",
              "name": "onAuction",
              "type": "bool"
            },
            {
              "internalType": "uint256",
              "name": "timeLive",
              "type": "uint256"
            },
            {
              "internalType": "uint256",
              "name": "startDate",
              "type": "uint256"
            },
            {
              "internalType": "uint256",
              "name": "startBid",
              "type": "uint256"
            },
            {
              "internalType": "bool",
              "name": "startNow",
              "type": "bool"
            },
            {
              "internalType": "bool",
              "name": "is721",
              "type": "bool"
            },
            {
              "internalType": "address",
              "name": "lastBidAddress",
              "type": "address"
            },
            {
              "internalType": "address[]",
              "name": "allBids",
              "type": "address[]"
            }
          ],
          "internalType": "struct ConfigurationNFT.SettingNFT",
          "name": "",
          "type": "tuple"
        }
      ],
      "stateMutability": "view",
      "type": "function"
    },
    {
      "inputs": [
        {
          "internalType": "address payable",
          "name": "_holder",
          "type": "address"
        },
        {
          "internalType": "address",
          "name": "_oracle",
          "type": "address"
        },
        {
          "internalType": "uint256",
          "name": "_cancelFee",
          "type": "uint256"
        },
        {
          "internalType": "uint256",
          "name": "_acceptFee",
          "type": "uint256"
        },
        {
          "internalType": "uint256",
          "name": "_fee",
          "type": "uint256"
        }
      ],
      "name": "initialize",
      "outputs": [],
      "stateMutability": "nonpayable",
      "type": "function"
    },
    {
      "inputs": [],
      "name": "owner",
      "outputs": [
        {
          "internalType": "address",
          "name": "",
          "type": "address"
        }
      ],
      "stateMutability": "view",
      "type": "function"
    },
    {
      "inputs": [],
      "name": "pause",
      "outputs": [],
      "stateMutability": "nonpayable",
      "type": "function"
    },
    {
      "inputs": [],
      "name": "paused",
      "outputs": [
        {
          "internalType": "bool",
          "name": "",
          "type": "bool"
        }
      ],
      "stateMutability": "view",
      "type": "function"
    },
    {
      "inputs": [],
      "name": "renounceOwnership",
      "outputs": [],
      "stateMutability": "nonpayable",
      "type": "function"
    },
    {
      "inputs": [
        {
          "internalType": "uint256",
          "name": "_acceptFee",
          "type": "uint256"
        }
      ],
      "name": "setAcceptFee",
      "outputs": [
        {
          "internalType": "bool",
          "name": "",
          "type": "bool"
        }
      ],
      "stateMutability": "nonpayable",
      "type": "function"
    },
    {
      "inputs": [
        {
          "internalType": "uint256",
          "name": "_cancelFee",
          "type": "uint256"
        }
      ],
      "name": "setCancelFee",
      "outputs": [
        {
          "internalType": "bool",
          "name": "",
          "type": "bool"
        }
      ],
      "stateMutability": "nonpayable",
      "type": "function"
    },
    {
      "inputs": [
        {
          "internalType": "uint256",
          "name": "_fee",
          "type": "uint256"
        }
      ],
      "name": "setFee",
      "outputs": [
        {
          "internalType": "bool",
          "name": "",
          "type": "bool"
        }
      ],
      "stateMutability": "nonpayable",
      "type": "function"
    },
    {
      "inputs": [
        {
          "internalType": "address payable",
          "name": "newHolder",
          "type": "address"
        }
      ],
      "name": "setHolder",
      "outputs": [
        {
          "internalType": "bool",
          "name": "",
          "type": "bool"
        }
      ],
      "stateMutability": "nonpayable",
      "type": "function"
    },
    {
      "inputs": [
        {
          "internalType": "address",
          "name": "newOracle",
          "type": "address"
        }
      ],
      "name": "setOracle",
      "outputs": [
        {
          "internalType": "bool",
          "name": "",
          "type": "bool"
        }
      ],
      "stateMutability": "nonpayable",
      "type": "function"
    },
    {
      "inputs": [
        {
          "internalType": "address",
          "name": "newOwner",
          "type": "address"
        }
      ],
      "name": "transferOwnership",
      "outputs": [],
      "stateMutability": "nonpayable",
      "type": "function"
    },
    {
      "inputs": [],
      "name": "unpause",
      "outputs": [],
      "stateMutability": "nonpayable",
      "type": "function"
    },
    {
      "inputs": [
        {
          "internalType": "address",
          "name": "collection",
          "type": "address"
        },
        {
          "internalType": "uint256",
          "name": "tokenId",
          "type": "uint256"
        },
        {
          "internalType": "address",
          "name": "owner",
          "type": "address"
        }
      ],
      "name": "validate1155",
      "outputs": [],
      "stateMutability": "view",
      "type": "function"
    },
    {
      "inputs": [
        {
          "internalType": "address",
          "name": "collection",
          "type": "address"
        },
        {
          "internalType": "uint256",
          "name": "tokenId",
          "type": "uint256"
        },
        {
          "internalType": "address",
          "name": "owner",
          "type": "address"
        }
      ],
      "name": "validate721",
      "outputs": [],
      "stateMutability": "view",
      "type": "function"
    }
  ],
  "bytecode": "0x60806040526032600155609660025560966003553480156200002057600080fd5b506000805460ff19169055620000363362000046565b620000406200009f565b620001ac565b600080546001600160a01b03838116610100818102610100600160a81b0319851617855560405193049190911692909183917f8be0079c531659141344cd1fd0a4f28419497f9722a3daafe3b4186f6b6457e091a35050565b6000546001600160a01b03610100909104163314620001055760405162461bcd60e51b815260206004820181905260248201527f4f776e61626c653a2063616c6c6572206973206e6f7420746865206f776e657260448201526064015b60405180910390fd5b6200010f62000111565b565b60005460ff1615620001595760405162461bcd60e51b815260206004820152601060248201526f14185d5cd8589b194e881c185d5cd95960821b6044820152606401620000fc565b6000805460ff191660011790557f62e78cea01bee320cd4e420270b5ea74000d11b0c9f74754ebdbfc544b05a2586200018f3390565b6040516001600160a01b03909116815260200160405180910390a1565b6140be80620001bc6000396000f3fe6080604052600436106101b75760003560e01c806388cedbc4116100ec578063c2fffd6b1161008a578063ddca3f4311610064578063ddca3f43146104df578063ded9355e146104f4578063e1b2ccb414610514578063f2fde38b1461053457600080fd5b8063c2fffd6b1461047f578063d13f90b41461049f578063d979f5aa146104bf57600080fd5b80639d23a236116100c65780639d23a23614610419578063b2548b5b1461042c578063b56785881461044c578063bff098b41461045f57600080fd5b806388cedbc4146103bd5780638cb4460a146103d05780638da5cb5b146103e357600080fd5b806362e986f611610159578063720b805b11610133578063720b805b14610348578063750abd371461035b5780637adbf973146103885780638456cb59146103a857600080fd5b806362e986f61461030057806369fe0e2d14610313578063715018a61461033357600080fd5b80633f4ba83a116101955780633f4ba83a146102195780635355fa101461023057806353824972146102505780635c975abb146102dc57600080fd5b806314025dcd146101bc57806335d91abc146101e45780633abecc4914610204575b600080fd5b3480156101c857600080fd5b506101d1610554565b6040519081526020015b60405180910390f35b3480156101f057600080fd5b506101d16101ff366004613b69565b610606565b34801561021057600080fd5b506101d16106de565b34801561022557600080fd5b5061022e610735565b005b34801561023c57600080fd5b5061022e61024b366004613b32565b610778565b34801561025c57600080fd5b506102a761026b366004613a29565b600660205260009081526040902080546001909101546001600160a01b039182169181169060ff600160a01b8204811691600160a81b90041684565b604080516001600160a01b03958616815294909316602085015260ff90911691830191909152151560608201526080016101db565b3480156102e857600080fd5b5060005460ff165b60405190151581526020016101db565b6102f061030e366004613ceb565b61093c565b34801561031f57600080fd5b506102f061032e366004613d71565b610c06565b34801561033f57600080fd5b5061022e610c75565b6102f0610356366004613cb3565b610caf565b34801561036757600080fd5b5061037b610376366004613b06565b6112ff565b6040516101db9190613ee7565b34801561039457600080fd5b506102f06103a3366004613a29565b611499565b3480156103b457600080fd5b5061022e611519565b6102f06103cb366004613b06565b611551565b6102f06103de366004613c4c565b611dbb565b3480156103ef57600080fd5b5060005461010090046001600160a01b03166040516001600160a01b0390911681526020016101db565b6102f0610427366004613bbc565b612041565b34801561043857600080fd5b506101d1610447366004613d8a565b61281b565b6102f061045a366004613c04565b6128cb565b34801561046b57600080fd5b506102f061047a366004613d71565b6132d5565b34801561048b57600080fd5b506102f061049a366004613d71565b613346565b3480156104ab57600080fd5b5061022e6104ba366004613a6a565b6133b6565b3480156104cb57600080fd5b506102f06104da366004613a29565b613427565b3480156104eb57600080fd5b506101d16134a7565b34801561050057600080fd5b506102f061050f366004613abb565b6134fe565b34801561052057600080fd5b5061022e61052f366004613b32565b6135ed565b34801561054057600080fd5b5061022e61054f366004613a29565b6137ae565b600060646002546064600560009054906101000a90046001600160a01b03166001600160a01b031663c338287f6040518163ffffffff1660e01b815260040160206040518083038186803b1580156105ab57600080fd5b505afa1580156105bf573d6000803e3d6000fd5b505050506040513d601f19601f820116820180604052508101906105e39190613d58565b6105ed9190613fdd565b6105f79190613fff565b6106019190613fdd565b905090565b600554604051639743665560e01b81526001600160a01b0384811660048301528381166024830152600860448301526000926305f5e1009291169063974366559060640160206040518083038186803b15801561066257600080fd5b505afa158015610676573d6000803e3d6000fd5b505050506040513d601f19601f8201168201806040525081019061069a9190613d58565b6001600160a01b03871660009081526007602090815260408083208984529091529020600301546106cb9190613fff565b6106d59190613fdd565b95945050505050565b600060646003546064600560009054906101000a90046001600160a01b03166001600160a01b031663c338287f6040518163ffffffff1660e01b815260040160206040518083038186803b1580156105ab57600080fd5b6000546001600160a01b0361010090910416331461076e5760405162461bcd60e51b815260040161076590613eb2565b60405180910390fd5b61077661384f565b565b604051627eeac760e11b81526001600160a01b038281166004830152602482018490526000919085169062fdd58e9060440160206040518083038186803b1580156107c257600080fd5b505afa1580156107d6573d6000803e3d6000fd5b505050506040513d601f19601f820116820180604052508101906107fa9190613d58565b116108535760405162461bcd60e51b815260206004820152602360248201527f596f7520646f6e742068617665207375666963656e742062616c616e6365203160448201526231353560e81b6064820152608401610765565b60405163e985e9c560e01b81526001600160a01b0384169063e985e9c5906108819084903090600401613e05565b60206040518083038186803b15801561089957600080fd5b505afa1580156108ad573d6000803e3d6000fd5b505050506040513d601f19601f820116820180604052508101906108d19190613d3b565b15156001146109375760405162461bcd60e51b815260206004820152602c60248201527f596f7520646f6e742068617665207375666963656e742062616c616e6365206160448201526b7070726f766564203131353560a01b6064820152608401610765565b505050565b6000805460ff16156109835760405162461bcd60e51b815260206004820152601060248201526f14185d5cd8589b194e881c185d5cd95960821b6044820152606401610765565b61098b6134a7565b3410156109ec5760405162461bcd60e51b815260206004820152602960248201527f596f7520646f6e74206861766520737566666963656e7420616d6f756e7420746044820152686f207061792066656560b81b6064820152608401610765565b8115610a02576109fd8787336135ed565b610a0d565b610a0d878733610778565b610a156138e2565b506001600160a01b03871660008181526007602090815260408083208a845290915290208054336001600160a01b031991821617825560018201899055600282018054909116909217909155600801805460ff19168315151790558415610abe576001600160a01b03871660009081526007602081815260408084208a855290915282206003810188905560048101805461ffff19166001179055600581018390550155610b53565b62015180831015610b085760405162461bcd60e51b8152602060048201526014602482015273496e7375666963656e742074696d65206c69766560601b6044820152606401610765565b6001600160a01b03871660009081526007602081815260408084208a855290915282206004810180546005830188905592820188905560039091019290925561ffff19166101001790555b7f0309ca233d12a4e17bd337a99d8cf6d10307b40df287b8e116929a5e820ba50b336001600160a01b0389811660008181526007602090815260408083208d845282528083206004015481519690951686529085018c90528401919091526060830189905260ff808316151560808501526101009283900416151560a084015260c0830187905260e083015281018690528315156101208201526101400160405180910390a15060019695505050505050565b600080546001600160a01b03610100909104163314610c375760405162461bcd60e51b815260040161076590613eb2565b600182905560035460025460405184907f7db2709f6e7adf14b75ac6a4bc01b5f3ff9000017f9648c2b70f6ca8616d8f5790600090a4506001919050565b6000546001600160a01b03610100909104163314610ca55760405162461bcd60e51b815260040161076590613eb2565b6107766000613923565b6001600160a01b0384166000908152600760209081526040808320868452909152812060040154610100900460ff1615610ce857600080fd5b6001600160a01b0385811660009081526008602090815260408083208884528252808320938616835292905220600181015490544291610d2791613fc5565b1015610d655760405162461bcd60e51b815260206004820152600d60248201526c24b73b30b634b21037b33332b960991b6044820152606401610765565b6001600160a01b0385811660009081526008602090815260408083208884528252808320868516845282528083206004015490931682526006905220600190810154600160a01b900460ff1614610dbb57600080fd5b610dc36134a7565b341015610dcf57600080fd5b610dd76138e2565b506001600160a01b0385811660009081526008602090815260408083208884528252808320868516845290915290819020600381015460048083015460029093015493516370a0823160e01b8152938516908401529216906370a082319060240160206040518083038186803b158015610e5057600080fd5b505afa158015610e64573d6000803e3d6000fd5b505050506040513d601f19601f82011682018060405250810190610e889190613d58565b1015610ed65760405162461bcd60e51b815260206004820152601b60248201527f4e6f7420737566666963656e742063727970746f20746f2062757900000000006044820152606401610765565b6001600160a01b038581166000908152600860209081526040808320888452825280832086851684529091529081902060038101546004808301546002909301549351636eb1769f60e11b815291949283169363dd62ed3e93610f3e93911691309101613e05565b60206040518083038186803b158015610f5657600080fd5b505afa158015610f6a573d6000803e3d6000fd5b505050506040513d601f19601f82011682018060405250810190610f8e9190613d58565b1015610fe85760405162461bcd60e51b8152602060048201526024808201527f4e6f7420737566666963656e742063727970746f20617070726f76656420746f6044820152632062757960e01b6064820152608401610765565b6001600160a01b038581166000908152600860209081526040808320888452825280832086851684529091529081902060048082015460039092015492516323b872dd60e01b815291909316926323b872dd9261104a92339230929101613e1f565b602060405180830381600087803b15801561106457600080fd5b505af1158015611078573d6000803e3d6000fd5b505050506040513d601f19601f8201168201806040525081019061109c9190613d3b565b50821561113f576110ae8585336135ed565b6001600160a01b03858116600081815260086020908152604080832089845282528083208786168452909152908190206002015490516323b872dd60e01b815291926323b872dd9261110892339216908990600401613e1f565b600060405180830381600087803b15801561112257600080fd5b505af1158015611136573d6000803e3d6000fd5b505050506112f4565b60006001600160a01b03861662fdd58e336040516001600160e01b031960e084901b1681526001600160a01b0390911660048201526024810188905260440160206040518083038186803b15801561119657600080fd5b505afa1580156111aa573d6000803e3d6000fd5b505050506040513d601f19601f820116820180604052508101906111ce9190613d58565b116111d857600080fd5b60405163e985e9c560e01b81526001600160a01b0386169063e985e9c5906112069033903090600401613e05565b60206040518083038186803b15801561121e57600080fd5b505afa158015611232573d6000803e3d6000fd5b505050506040513d601f19601f820116820180604052508101906112569190613d3b565b151560011461126457600080fd5b6001600160a01b0385811660008181526008602090815260408083208984528252808320878616845290915290819020600201549051637921219560e11b8152919263f242432a926112c192339216908990600190600401613e43565b600060405180830381600087803b1580156112db57600080fd5b505af11580156112ef573d6000803e3d6000fd5b505050505b506001949350505050565b61138460405180610180016040528060006001600160a01b031681526020016000815260200160006001600160a01b031681526020016000815260200160001515815260200160001515815260200160008152602001600081526020016000815260200160001515815260200160006001600160a01b03168152602001606081525090565b6001600160a01b038084166000908152600760208181526040808420878552825292839020835161018081018552815486168152600182015481840152600282015486168186015260038201546060820152600482015460ff80821615156080840152610100918290048116151560a0840152600584015460c0840152600684015460e0840152948301548183015260088301549485161515610120830152909304909416610140830152600984018054845181840281018401909552808552929493610160860193909283018282801561148857602002820191906000526020600020905b81546001600160a01b0316815260019091019060200180831161146a575b505050505081525050905092915050565b600080546001600160a01b036101009091041633146114ca5760405162461bcd60e51b815260040161076590613eb2565b600580546001600160a01b0319166001600160a01b0384169081179091556040517f6d4881172853e787189216de6d514b739b8ad6a331e19518c66d3dc2b93639b590600090a2506001919050565b6000546001600160a01b036101009091041633146115495760405162461bcd60e51b815260040161076590613eb2565b61077661397c565b600061155b6134a7565b3410156115aa5760405162461bcd60e51b815260206004820152601e60248201527f596f7520646f6e74206861766520737566666963656e7420616d6f756e7400006044820152606401610765565b6001600160a01b038316600090815260076020908152604080832085845290915290206004015460ff61010090910416151560011461162b5760405162461bcd60e51b815260206004820152601a60248201527f54686973206e6674206973206e6f7420696e2061756374696f6e0000000000006044820152606401610765565b6116336138e2565b506001600160a01b038381166000818152600960209081526040808320878452825280832093835260078252808320878452825280832060080154610100900485168352928152828220600381015460029091015484516080810186528481529283018490529382018390526060820192909252921691818363dd62ed3e33306040518363ffffffff1660e01b81526004016116d0929190613e05565b60206040518083038186803b1580156116e857600080fd5b505afa1580156116fc573d6000803e3d6000fd5b505050506040513d601f19601f820116820180604052508101906117209190613d58565b101580156117cd57506001600160a01b038681166000908152600760209081526040808320898452909152908190206008015490516370a0823160e01b81526101009091048216600482015283918516906370a082319060240160206040518083038186803b15801561179257600080fd5b505afa1580156117a6573d6000803e3d6000fd5b505050506040513d601f19601f820116820180604052508101906117ca9190613d58565b10155b1561185657506001600160a01b0380861660008181526009602090815260408083208984528252808320938352600782528083208984528252808320600801546101009004851683529281529082902082516080810184528154815260018201548516928101929092526002810154928201929092526003909101549091166060820152611a5e565b60005b6001600160a01b0387166000908152600760209081526040808320898452909152902060090154811015611a5c576001600160a01b03871660008181526009602081815260408084208b85528252808420948452600782528084208b85529091528220018054919291839190859081106118d5576118d561404f565b60009182526020808320909101546001600160a01b039081168452838201949094526040928301909120825160808101845281548152600182015485169281019290925260028101549282018390526003015490921660608301819052965094509050838563dd62ed3e6119463390565b306040518363ffffffff1660e01b8152600401611964929190613e05565b60206040518083038186803b15801561197c57600080fd5b505afa158015611990573d6000803e3d6000fd5b505050506040513d601f19601f820116820180604052508101906119b49190613d58565b10158015611a40575060208101516040516370a0823160e01b81526001600160a01b03918216600482015285918716906370a082319060240160206040518083038186803b158015611a0557600080fd5b505afa158015611a19573d6000803e3d6000fd5b505050506040513d601f19601f82011682018060405250810190611a3d9190613d58565b10155b15611a49578092505b5080611a548161401e565b915050611859565b505b60208101516001600160a01b0316611a7557600080fd5b6001600160a01b038616600090815260076020908152604080832088845290915290206008015460ff1615611bae57611aaf8686336135ed565b80606001516001600160a01b03166323b872dd8260200151611ace3390565b84604001516040518463ffffffff1660e01b8152600401611af193929190613e1f565b602060405180830381600087803b158015611b0b57600080fd5b505af1158015611b1f573d6000803e3d6000fd5b505050506040513d601f19601f82011682018060405250810190611b439190613d3b565b506020810151604051632142170760e11b81526001600160a01b038816916342842e0e91611b779133918a90600401613e1f565b600060405180830381600087803b158015611b9157600080fd5b505af1158015611ba5573d6000803e3d6000fd5b50505050611cb7565b611bb9868633610778565b80606001516001600160a01b03166323b872dd8260200151611bd83390565b84604001516040518463ffffffff1660e01b8152600401611bfb93929190613e1f565b602060405180830381600087803b158015611c1557600080fd5b505af1158015611c29573d6000803e3d6000fd5b505050506040513d601f19601f82011682018060405250810190611c4d9190613d3b565b506020810151604051637921219560e11b81526001600160a01b0388169163f242432a91611c849133918a90600190600401613e43565b600060405180830381600087803b158015611c9e57600080fd5b505af1158015611cb2573d6000803e3d6000fd5b505050505b60208082015160608084015160408086015181516001600160a01b039586168152858d16968101969096529085018a905292169083015260808201527f178163ec506cbf4461966f885afd32c801627540936318a2c223033458560f089060a00160405180910390a16001600160a01b0386166000908152600760208181526040808420898552909152822080546001600160a01b031990811682556001820184905560028201805490911690556003810183905560048101805461ffff1916905560058101839055600681018390559081018290556008810180546001600160a81b031916905590611dad60098301826139f7565b506001979650505050505050565b6001600160a01b0386166000908152600760209081526040808320888452909152812060040154610100900460ff1615611df457600080fd5b6001600160a01b0385166000908152600660205260409020600190810154600160a01b900460ff1614611e2657600080fd5b836001600160a01b0386166370a08231336040516001600160e01b031960e084901b1681526001600160a01b03909116600482015260240160206040518083038186803b158015611e7657600080fd5b505afa158015611e8a573d6000803e3d6000fd5b505050506040513d601f19601f82011682018060405250810190611eae9190613d58565b1015611eb957600080fd5b604051636eb1769f60e11b815284906001600160a01b0387169063dd62ed3e90611ee99033903090600401613e05565b60206040518083038186803b158015611f0157600080fd5b505afa158015611f15573d6000803e3d6000fd5b505050506040513d601f19601f82011682018060405250810190611f399190613d58565b1015611f4457600080fd5b6040518060e00160405280848152602001428152602001611f623390565b6001600160a01b03908116825260208083019790975296871660408083019190915293151560608083019190915260016080928301819052998816600090815260088852858120998152988752848920338a528752978490208251815595820151868a0155928101516002860180546001600160a01b031916918816919091179055958601516003850155508401516004909201805460a086015160c090960151939094166001600160a81b031990941693909317600160a01b941515949094029390931760ff60a81b1916600160a81b911515919091021790555090565b6001600160a01b038416600090815260076020908152604080832086845290915281206004015460ff1615156001146120bc5760405162461bcd60e51b815260206004820152601860248201527f54686973206e667473206973206e6f74206f6e2073616c6500000000000000006044820152606401610765565b6120c46138e2565b5081156121c0576120d36134a7565b6001600160a01b03861660009081526007602090815260408083208884529091529020600301546121049190613fc5565b3410156121645760405162461bcd60e51b815260206004820152602860248201527f596f7520646f6e7420737566666963656e7420616d6f757420746f20627579206044820152671d1a1a5cc81b999d60c21b6064820152608401610765565b6001600160a01b038581166000908152600760209081526040808320888452909152808220805460039091015491519316926108fc82150292818181858888f193505050501580156121ba573d6000803e3d6000fd5b50612565565b6121c86134a7565b3410156122175760405162461bcd60e51b815260206004820152601d60248201527f596f7520646f6e74206861766520737566666963656e20616d6f756e740000006044820152606401610765565b6001600160a01b0383166000908152600660205260409020600190810154600160a01b900460ff161461228c5760405162461bcd60e51b815260206004820152601c60248201527f546869732063727970746f206973206e6f7420617661696c61626c65000000006044820152606401610765565b600061231f8686600560009054906101000a90046001600160a01b03166001600160a01b03166338cc48316040518163ffffffff1660e01b815260040160206040518083038186803b1580156122e157600080fd5b505afa1580156122f5573d6000803e3d6000fd5b505050506040513d601f19601f820116820180604052508101906123199190613a4d565b87610606565b9050806001600160a01b0385166370a08231336040516001600160e01b031960e084901b1681526001600160a01b03909116600482015260240160206040518083038186803b15801561237157600080fd5b505afa158015612385573d6000803e3d6000fd5b505050506040513d601f19601f820116820180604052508101906123a99190613d58565b10156123f75760405162461bcd60e51b815260206004820152601d60248201527f596f7520646f6e74206861766520737566666963656e742065726332300000006044820152606401610765565b604051636eb1769f60e11b815281906001600160a01b0386169063dd62ed3e906124279033903090600401613e05565b60206040518083038186803b15801561243f57600080fd5b505afa158015612453573d6000803e3d6000fd5b505050506040513d601f19601f820116820180604052508101906124779190613d58565b10156124be5760405162461bcd60e51b81526020600482015260166024820152750596f7520646f6e7420617070726f76652065726332360541b6044820152606401610765565b6001600160a01b038681166000908152600760209081526040808320898452909152908190205490516323b872dd60e01b8152868316926323b872dd9261251092339291909116908690600401613e1f565b602060405180830381600087803b15801561252a57600080fd5b505af115801561253e573d6000803e3d6000fd5b505050506040513d601f19601f820116820180604052508101906125629190613d3b565b50505b6001600160a01b038516600090815260076020908152604080832087845290915290206008015460ff161561264c576001600160a01b0380861660009081526007602090815260408083208884529091529020546125c79187918791166135ed565b6001600160a01b03858116600081815260076020908152604080832089845290915290205490916323b872dd911633876040518463ffffffff1660e01b815260040161261593929190613e1f565b600060405180830381600087803b15801561262f57600080fd5b505af1158015612643573d6000803e3d6000fd5b50505050612703565b6001600160a01b03808616600090815260076020908152604080832088845290915290205461267f918791879116610778565b6001600160a01b038581166000818152600760209081526040808320898452909152902054909163f242432a9116338760016040518563ffffffff1660e01b81526004016126d09493929190613e43565b600060405180830381600087803b1580156126ea57600080fd5b505af11580156126fe573d6000803e3d6000fd5b505050505b7fc7e11cb014663bf74ed44542f95dd639bf979b0744af89d81d03e273041faecb85336001600160a01b0388811660009081526007602090815260408083208b8452825291829020600301548251958416865293831690850152830188905286166060830152608082015283151560a082015260c00160405180910390a16001600160a01b0385166000908152600760208181526040808420888552909152822080546001600160a01b031990811682556001820184905560028201805490911690556003810183905560048101805461ffff1916905560058101839055600681018390559081018290556008810180546001600160a81b03191690559061280e60098301826139f7565b5060019695505050505050565b600554604051639743665560e01b81526001600160a01b0384811660048301528381166024830152600860448301526000926305f5e1009291169063974366559060640160206040518083038186803b15801561287757600080fd5b505afa15801561288b573d6000803e3d6000fd5b505050506040513d601f19601f820116820180604052508101906128af9190613d58565b6128b99086613fff565b6128c39190613fdd565b949350505050565b60006128d56134a7565b3410156129245760405162461bcd60e51b815260206004820152601e60248201527f596f7520646f6e74206861766520737566666963656e7420616d6f756e7400006044820152606401610765565b6001600160a01b0383166000908152600660205260409020600190810154600160a01b900460ff16146129995760405162461bcd60e51b815260206004820152601c60248201527f546869732063727970746f206973206e6f7420617661696c61626c65000000006044820152606401610765565b6001600160a01b038516600090815260076020908152604080832087845290915290206004015460ff610100909104161515600114612a1a5760405162461bcd60e51b815260206004820152601a60248201527f54686973206e6674206973206e6f7420696e2061756374696f6e0000000000006044820152606401610765565b60008211612a5e5760405162461bcd60e51b8152602060048201526011602482015270105b5bdd5b9d081a5b9cdd599a58d95b9d607a1b6044820152606401610765565b612a666138e2565b506001600160a01b0385166000908152600760209081526040808320878452909152902060060154158015612ac657506001600160a01b038581166000908152600760209081526040808320888452909152902060080154610100900416155b15612d96576000612be083600560009054906101000a90046001600160a01b03166001600160a01b03166338cc48316040518163ffffffff1660e01b815260040160206040518083038186803b158015612b1f57600080fd5b505afa158015612b33573d6000803e3d6000fd5b505050506040513d601f19601f82011682018060405250810190612b579190613a4d565b6001600160a01b038088166000908152600660209081526040918290205482516338cc483160e01b815292519316926338cc4831926004808201939291829003018186803b158015612ba857600080fd5b505afa158015612bbc573d6000803e3d6000fd5b505050506040513d601f19601f820116820180604052508101906104479190613a4d565b9050806001600160a01b0385166370a08231336040516001600160e01b031960e084901b1681526001600160a01b03909116600482015260240160206040518083038186803b158015612c3257600080fd5b505afa158015612c46573d6000803e3d6000fd5b505050506040513d601f19601f82011682018060405250810190612c6a9190613d58565b1015612c885760405162461bcd60e51b815260040161076590613e7b565b604051636eb1769f60e11b815281906001600160a01b0386169063dd62ed3e90612cb89033903090600401613e05565b60206040518083038186803b158015612cd057600080fd5b505afa158015612ce4573d6000803e3d6000fd5b505050506040513d601f19601f82011682018060405250810190612d089190613d58565b1015612d665760405162461bcd60e51b815260206004820152602760248201527f596f7520646f6e74206861766520737566666963656e742063727970746f20616044820152661c1c1c9bdd995960ca1b6064820152608401610765565b506001600160a01b0385166000908152600760209081526040808320878452909152902042600690910155613198565b6001600160a01b0385166000908152600760209081526040808320878452909152902060058101546006909101544291612dcf91613fc5565b1015612dda57600080fd5b6001600160a01b0380861660008181526007602090815260408083208984528252808320600801549383526009825280832089845282528083206101009094048516808452848352818420600381015487168552600684528285208351608081018552815489168152600191909101548089168287015260ff600160a01b8204811683870152600160a81b90910416151560608201528286529584526002015460055483516338cc483160e01b815293519297612f2e9592949116926338cc483192600480840193919291829003018186803b158015612eb957600080fd5b505afa158015612ecd573d6000803e3d6000fd5b505050506040513d601f19601f82011682018060405250810190612ef19190613a4d565b84600001516001600160a01b03166338cc48316040518163ffffffff1660e01b815260040160206040518083038186803b158015612ba857600080fd5b9050600061300d86600560009054906101000a90046001600160a01b03166001600160a01b03166338cc48316040518163ffffffff1660e01b815260040160206040518083038186803b158015612f8457600080fd5b505afa158015612f98573d6000803e3d6000fd5b505050506040513d601f19601f82011682018060405250810190612fbc9190613a4d565b6001600160a01b03808b166000908152600660209081526040918290205482516338cc483160e01b815292519316926338cc4831926004808201939291829003018186803b158015612ba857600080fd5b905081811161304f5760405162461bcd60e51b815260206004820152600e60248201526d2630b9ba103134b21032b93937b960911b6044820152606401610765565b856001600160a01b0388166370a08231336040516001600160e01b031960e084901b1681526001600160a01b03909116600482015260240160206040518083038186803b15801561309f57600080fd5b505afa1580156130b3573d6000803e3d6000fd5b505050506040513d601f19601f820116820180604052508101906130d79190613d58565b10156130f55760405162461bcd60e51b815260040161076590613e7b565b604051636eb1769f60e11b815286906001600160a01b0389169063dd62ed3e906131259033903090600401613e05565b60206040518083038186803b15801561313d57600080fd5b505afa158015613151573d6000803e3d6000fd5b505050506040513d601f19601f820116820180604052508101906131759190613d58565b10156131935760405162461bcd60e51b815260040161076590613e7b565b505050505b60405180608001604052804281526020016131b03390565b6001600160a01b03908116825260208083018690528682166040938401819052898316600081815260098085528682208c83528552868220338084529086528783208951815589870151600180830180546001600160a01b0319908116938c169390931790558b8b0151600284015560609b8c015160039093018054831693909a1692909217909855848452600787528884208e85528752888420600881018054610100600160a81b03191661010085021790559092018054928301815583529185902001805490951681179094558451938452918301919091528183018890529281019290925260808201849052517f4a2d2de93d8e179c12962feb8341410f4582f1f06c16fa1a2dbd084023a3a8dc9181900360a00190a1506001949350505050565b600080546001600160a01b036101009091041633146133065760405162461bcd60e51b815260040161076590613eb2565b6003829055600254600154604051849291907f7db2709f6e7adf14b75ac6a4bc01b5f3ff9000017f9648c2b70f6ca8616d8f5790600090a4506001919050565b600080546001600160a01b036101009091041633146133775760405162461bcd60e51b815260040161076590613eb2565b60028290556003546001546040518491907f7db2709f6e7adf14b75ac6a4bc01b5f3ff9000017f9648c2b70f6ca8616d8f5790600090a4506001919050565b6000546001600160a01b036101009091041633146133e65760405162461bcd60e51b815260040161076590613eb2565b6133ef85613427565b506133f984611499565b5061340381610c06565b5061340d83613346565b50613417826132d5565b50613420610735565b5050505050565b600080546001600160a01b036101009091041633146134585760405162461bcd60e51b815260040161076590613eb2565b600480546001600160a01b0319166001600160a01b0384169081179091556040517f66743038d969508e26e3d032a34d950971853817a94fd22e88316055e1145bf490600090a2506001919050565b600060646001546064600560009054906101000a90046001600160a01b03166001600160a01b031663c338287f6040518163ffffffff1660e01b815260040160206040518083038186803b1580156105ab57600080fd5b600080546001600160a01b0361010090910416331461352f5760405162461bcd60e51b815260040161076590613eb2565b6001600160a01b038416600090815260066020526040902060010154600160a01b900460ff161561355f57600080fd5b6001600160a01b0384811660008181526006602052604080822060018101805482546001600160a01b031916968a16968717909255600160a01b6001600160a81b03199092169094171760ff60a81b1916600160a81b871515021790925590517f6d4881172853e787189216de6d514b739b8ad6a331e19518c66d3dc2b93639b59190a25060019392505050565b6040516331a9108f60e11b8152600481018390526001600160a01b038083169190851690636352211e9060240160206040518083038186803b15801561363257600080fd5b505afa158015613646573d6000803e3d6000fd5b505050506040513d601f19601f8201168201806040525081019061366a9190613a4d565b6001600160a01b0316146136cb5760405162461bcd60e51b815260206004820152602260248201527f596f7520646f6e742068617665207375666963656e742062616c616e63652037604482015261323160f01b6064820152608401610765565b60405163e985e9c560e01b81526001600160a01b0384169063e985e9c5906136f99084903090600401613e05565b60206040518083038186803b15801561371157600080fd5b505afa158015613725573d6000803e3d6000fd5b505050506040513d601f19601f820116820180604052508101906137499190613d3b565b15156001146109375760405162461bcd60e51b815260206004820152602b60248201527f596f7520646f6e742068617665207375666963656e742062616c616e6365206160448201526a7070726f7665642037323160a81b6064820152608401610765565b6000546001600160a01b036101009091041633146137de5760405162461bcd60e51b815260040161076590613eb2565b6001600160a01b0381166138435760405162461bcd60e51b815260206004820152602660248201527f4f776e61626c653a206e6577206f776e657220697320746865207a65726f206160448201526564647265737360d01b6064820152608401610765565b61384c81613923565b50565b60005460ff166138985760405162461bcd60e51b815260206004820152601460248201527314185d5cd8589b194e881b9bdd081c185d5cd95960621b6044820152606401610765565b6000805460ff191690557f5db9ee0a495bf2e6ff9c91a7834c1ba4fdd244a5e8aa4e537bd38aeae4b073aa335b6040516001600160a01b03909116815260200160405180910390a1565b6004546040516000916001600160a01b0316903480156108fc029184818181858888f1935050505015801561391b573d6000803e3d6000fd5b506001905090565b600080546001600160a01b03838116610100818102610100600160a81b0319851617855560405193049190911692909183917f8be0079c531659141344cd1fd0a4f28419497f9722a3daafe3b4186f6b6457e091a35050565b60005460ff16156139c25760405162461bcd60e51b815260206004820152601060248201526f14185d5cd8589b194e881c185d5cd95960821b6044820152606401610765565b6000805460ff191660011790557f62e78cea01bee320cd4e420270b5ea74000d11b0c9f74754ebdbfc544b05a2586138c53390565b508054600082559060005260206000209081019061384c91905b80821115613a255760008155600101613a11565b5090565b600060208284031215613a3b57600080fd5b8135613a4681614065565b9392505050565b600060208284031215613a5f57600080fd5b8151613a4681614065565b600080600080600060a08688031215613a8257600080fd5b8535613a8d81614065565b94506020860135613a9d81614065565b94979496505050506040830135926060810135926080909101359150565b600080600060608486031215613ad057600080fd5b8335613adb81614065565b92506020840135613aeb81614065565b91506040840135613afb8161407a565b809150509250925092565b60008060408385031215613b1957600080fd5b8235613b2481614065565b946020939093013593505050565b600080600060608486031215613b4757600080fd5b8335613b5281614065565b9250602084013591506040840135613afb81614065565b60008060008060808587031215613b7f57600080fd5b8435613b8a81614065565b9350602085013592506040850135613ba181614065565b91506060850135613bb181614065565b939692955090935050565b60008060008060808587031215613bd257600080fd5b8435613bdd81614065565b9350602085013592506040850135613bf481614065565b91506060850135613bb18161407a565b60008060008060808587031215613c1a57600080fd5b8435613c2581614065565b9350602085013592506040850135613c3c81614065565b9396929550929360600135925050565b60008060008060008060c08789031215613c6557600080fd5b8635613c7081614065565b9550602087013594506040870135613c8781614065565b9350606087013592506080870135915060a0870135613ca58161407a565b809150509295509295509295565b60008060008060808587031215613cc957600080fd5b8435613cd481614065565b9350602085013592506040850135613ba18161407a565b60008060008060008060c08789031215613d0457600080fd5b8635613d0f81614065565b95506020870135945060408701359350606087013592506080870135915060a0870135613ca58161407a565b600060208284031215613d4d57600080fd5b8151613a468161407a565b600060208284031215613d6a57600080fd5b5051919050565b600060208284031215613d8357600080fd5b5035919050565b600080600060608486031215613d9f57600080fd5b833592506020840135613db181614065565b91506040840135613afb81614065565b600081518084526020808501945080840160005b83811015613dfa5781516001600160a01b031687529582019590820190600101613dd5565b509495945050505050565b6001600160a01b0392831681529116602082015260400190565b6001600160a01b039384168152919092166020820152604081019190915260600190565b6001600160a01b0394851681529290931660208301526040820152606081019190915260a06080820181905260009082015260c00190565b6020808252601e908201527f596f7520646f6e74206861766520737566666963656e742063727970746f0000604082015260600190565b6020808252818101527f4f776e61626c653a2063616c6c6572206973206e6f7420746865206f776e6572604082015260600190565b60208152613f016020820183516001600160a01b03169052565b6020820151604082015260006040830151613f2760608401826001600160a01b03169052565b50606083015160808301526080830151613f4560a084018215159052565b5060a083015180151560c08401525060c083015160e0838101919091528301516101008084019190915283015161012080840191909152830151610140613f8f8185018315159052565b8401519050610160613fab848201836001600160a01b03169052565b8401516101808481015290506128c36101a0840182613dc1565b60008219821115613fd857613fd8614039565b500190565b600082613ffa57634e487b7160e01b600052601260045260246000fd5b500490565b600081600019048311821515161561401957614019614039565b500290565b600060001982141561403257614032614039565b5060010190565b634e487b7160e01b600052601160045260246000fd5b634e487b7160e01b600052603260045260246000fd5b6001600160a01b038116811461384c57600080fd5b801515811461384c57600080fdfea264697066735822122007ffd3efea954b175faf51aa18c33fc16aabeb39dff6222de9e1824b9407458d64736f6c63430008070033",
  "immutableReferences": {},
  "source": "// SPDX-License-Identifier: MIT\r\n//Cryptoloteria Contracts (last updated v1.0)\r\npragma solidity ^0.8.5;\r\nimport \"@openzeppelin/contracts/token/ERC20/ERC20.sol\";\r\nimport \"./ConfigurationNFT.sol\";\r\n\r\n\r\n/**\r\n * @dev _Available since v1.0\r\n */\r\ncontract ExchangeNFT is ConfigurationNFT {\r\n    event Initialize (\r\n        address  holder,\r\n        address oracle,\r\n        uint256 cancelFee,\r\n        uint256 acceptFee,\r\n        uint256 fee,\r\n        bool isNative\r\n    );\r\n\r\n    struct Offer {\r\n        uint256 timeLive;\r\n        uint256 createdAt;\r\n        address from;\r\n        uint256 amountOffer;\r\n        address crypto;\r\n        bool is721;\r\n        bool status;\r\n    }\r\n\r\n    struct Bid {\r\n        uint256 createdAt;\r\n        address from;\r\n        uint256 amount;\r\n        address crypto;\r\n    }\r\n\r\n\r\n    event Bought (\r\n        address collection, \r\n        address newOwner,\r\n        uint256 tokenId,\r\n        address crypto,\r\n        uint256 price,\r\n        bool isNative\r\n    );\r\n\r\n    event HigherBid (\r\n        address owner, \r\n        address collection,\r\n        uint256 tokenId,\r\n        address crypto,\r\n        uint256 amount\r\n    );\r\n\r\n\r\n    event AuctionFinish (\r\n        address winner, \r\n        address collection,\r\n        uint256 tokenId,\r\n        address crypto,\r\n        uint256 amount\r\n    );\r\n\r\n\r\n\r\n    mapping (address =>  mapping (uint256 => mapping (address => Offer))) internal offers;\r\n    mapping (address =>  mapping (uint256 => mapping (address => Bid))) internal bids;\r\n\r\n    constructor () {\r\n        pause();\r\n    }\r\n    /**\r\n    * NOTE: This ins de method to start to use this contract and unpause this\r\n    *\r\n    * Requirements:\r\n    * @param _acceptFee is the amount in USD\r\n    */\r\n    function initialize(\r\n        address payable _holder,\r\n        address _oracle,\r\n        uint256 _cancelFee,\r\n        uint256 _acceptFee,\r\n        uint256 _fee)  public onlyOwner{\r\n        setHolder(_holder);\r\n        setOracle(_oracle);\r\n        setFee(_fee);\r\n        setCancelFee(_cancelFee);\r\n        setAcceptFee(_acceptFee);\r\n        unpause();\r\n        //emit Initialize(_holder, _collection, _wrapped, _oracle, _cancelFee, _acceptFee, _fee);\r\n    }\r\n\r\n    function addOffer(address collection, uint256 tokenId,address crypto, uint256 amount,uint256 timeLive,bool is721) public payable returns(bool) {\r\n        require(settings[collection][tokenId].onAuction == false);\r\n        require(amount >= 0);\r\n        require(cryptos[crypto].status == 1);\r\n        require(ERC20(crypto).balanceOf(_msgSender()) >= amount);\r\n        require(ERC20(crypto).allowance(_msgSender(),address(this)) >= amount);\r\n        offers[collection][tokenId][_msgSender()] = Offer(timeLive, block.timestamp,_msgSender(),amount,crypto,is721,true);\r\n        return true;\r\n    }\r\n\r\n    function acceptOffer(address collection, uint256 tokenId,bool is721,address offerOwner) public payable returns(bool) {\r\n        require(settings[collection][tokenId].onAuction == false);\r\n        require((offers[collection][tokenId][offerOwner].timeLive + offers[collection][tokenId][offerOwner].createdAt) >= block.timestamp, \"Invalid offer\");\r\n        require(cryptos[offers[collection][tokenId][offerOwner].crypto].status == 1);\r\n        require(msg.value >=  fee());\r\n        retriveFee();\r\n        require(ERC20(offers[collection][tokenId][offerOwner].crypto).balanceOf(offers[collection][tokenId][offerOwner].from) >= offers[collection][tokenId][offerOwner].amountOffer,\"Not sufficent crypto to buy\");\r\n        require(ERC20(offers[collection][tokenId][offerOwner].crypto).allowance(offers[collection][tokenId][offerOwner].from,address(this)) >= offers[collection][tokenId][offerOwner].amountOffer,\"Not sufficent crypto approved to buy\");\r\n        ERC20(offers[collection][tokenId][offerOwner].crypto).transferFrom(_msgSender(),address(this), offers[collection][tokenId][offerOwner].amountOffer);\r\n        if(is721) {\r\n            validate721(collection,tokenId,_msgSender());\r\n            ERC721(collection).transferFrom(_msgSender(),offers[collection][tokenId][offerOwner].from,tokenId);\r\n        } else {\r\n            require(ERC1155(collection).balanceOf(_msgSender(),tokenId) > 0);\r\n            require(ERC1155(collection).isApprovedForAll(_msgSender(), address(this)) == true);\r\n            ERC1155(collection).safeTransferFrom(_msgSender(),offers[collection][tokenId][offerOwner].from,tokenId,1,\"\");\r\n        }\r\n        return true;\r\n    }\r\n\r\n    function buyNow(address collection, uint256 tokenId,address crypto,bool isNative) public payable returns(bool) {\r\n        require(settings[collection][tokenId].onSale == true,\"This nfts is not on sale\");\r\n        retriveFee();\r\n        if (isNative) {\r\n            require(msg.value >= (settings[collection][tokenId].price + fee()), \"You dont sufficent amout to buy this nft\");\r\n            payable(settings[collection][tokenId].owner).transfer(settings[collection][tokenId].price);\r\n        } else {\r\n            require(msg.value >=  fee(),\"You dont have sufficen amount\");\r\n            require(cryptos[crypto].status == 1,\"This crypto is not available\");\r\n            uint256 price_in_usd = getPriceNFTInUSD(collection,tokenId,oracle.getAddress(),crypto);\r\n            require(ERC20(crypto).balanceOf(_msgSender()) >= price_in_usd,\"You dont have sufficent erc20\");\r\n            require(ERC20(crypto).allowance(_msgSender(),address(this)) >= price_in_usd,\"You dont approve erc20\");\r\n            ERC20(crypto).transferFrom(_msgSender(),settings[collection][tokenId].owner, price_in_usd);\r\n        }\r\n        if(settings[collection][tokenId].is721) {\r\n            validate721(collection,tokenId,settings[collection][tokenId].owner);\r\n            ERC721(collection).transferFrom(settings[collection][tokenId].owner,_msgSender(),tokenId);\r\n        } else {\r\n            validate1155(collection,tokenId,settings[collection][tokenId].owner);\r\n            ERC1155(collection).safeTransferFrom(settings[collection][tokenId].owner,_msgSender(),tokenId,1,\"\");\r\n        }\r\n        emit Bought(collection,_msgSender(),tokenId,crypto,settings[collection][tokenId].price,isNative);\r\n        delete settings[collection][tokenId];\r\n        return true;\r\n    }\r\n\r\n    function getPriceNFTInUSD(address collection, uint256 tokenId, address _base, address _quote) public view returns(uint256) {\r\n        return settings[collection][tokenId].price * uint256(oracle.getDerivedPrice(_base,_quote,8)) / (10 ** 8);\r\n    }\r\n\r\n    function getPriceInUSD(uint256 amount, address _base, address _quote) public view returns(uint256) {\r\n        return amount * uint256(oracle.getDerivedPrice(_base,_quote,8)) / (10 ** 8);\r\n    }\r\n\r\n    function bid(address collection, uint256 tokenId,address crypto, uint256 amount) public payable returns(bool){\r\n        require(msg.value >=  fee(),\"You dont have sufficent amount\");\r\n        require(cryptos[crypto].status == 1,\"This crypto is not available\");\r\n        require(settings[collection][tokenId].onAuction == true,\"This nft is not in auction\");\r\n        require(amount > 0,\"Amount insuficent\");\r\n        retriveFee();\r\n        if(settings[collection][tokenId].startDate == 0 && settings[collection][tokenId].lastBidAddress == address(0)) {\r\n            uint256 price_in_usd = getPriceInUSD(amount,oracle.getAddress(),cryptos[crypto].oracle.getAddress());\r\n            require(ERC20(crypto).balanceOf(_msgSender()) >= price_in_usd,\"You dont have sufficent crypto\");\r\n            require(ERC20(crypto).allowance(_msgSender(),address(this)) >= price_in_usd,\"You dont have sufficent crypto approved\");\r\n            settings[collection][tokenId].startDate  = block.timestamp;\r\n        } else {\r\n            require((settings[collection][tokenId].startDate + settings[collection][tokenId].timeLive) >= block.timestamp);\r\n            address last_address = settings[collection][tokenId].lastBidAddress;\r\n            Crypto memory oldCrypto = cryptos[bids[collection][tokenId][settings[collection][tokenId].lastBidAddress].crypto];\r\n            uint256 last_bid_amount = getPriceInUSD(bids[collection][tokenId][last_address].amount,oracle.getAddress(),oldCrypto.oracle.getAddress());\r\n            uint256 price_in_usd = getPriceInUSD(amount,oracle.getAddress(),cryptos[crypto].oracle.getAddress());\r\n            require(price_in_usd > last_bid_amount,\"Last bid error\");\r\n            require(ERC20(crypto).balanceOf(_msgSender()) >= amount,\"You dont have sufficent crypto\");\r\n            require(ERC20(crypto).allowance(_msgSender(),address(this)) >= amount,\"You dont have sufficent crypto\");\r\n        }\r\n        bids[collection][tokenId][_msgSender()] = Bid(block.timestamp,_msgSender(),amount,crypto);\r\n        settings[collection][tokenId].lastBidAddress = _msgSender();\r\n        settings[collection][tokenId].allBids.push(_msgSender());\r\n        emit HigherBid(_msgSender(),collection,tokenId,crypto,amount);\r\n        return true;\r\n    }\r\n\r\n    function endAuction(address collection, uint256 tokenId)  public payable returns(bool){\r\n        require(msg.value >=  fee(),\"You dont have sufficent amount\");\r\n        require(settings[collection][tokenId].onAuction == true,\"This nft is not in auction\");\r\n        retriveFee();\r\n        address crypto = bids[collection][tokenId][settings[collection][tokenId].lastBidAddress].crypto;\r\n        uint256 amount = bids[collection][tokenId][settings[collection][tokenId].lastBidAddress].amount;\r\n        Bid memory _bid;\r\n        if(ERC20(crypto).allowance(_msgSender(),address(this)) >= amount && ERC20(crypto).balanceOf( settings[collection][tokenId].lastBidAddress) >= amount) {\r\n            _bid = bids[collection][tokenId][settings[collection][tokenId].lastBidAddress];\r\n        } else {\r\n            for (uint256 index = 0; index < settings[collection][tokenId].allBids.length; index++) {\r\n                Bid memory bidFound = bids[collection][tokenId][settings[collection][tokenId].allBids[index]];\r\n                crypto =bidFound.crypto;\r\n                amount = bidFound.amount;\r\n                if(ERC20(crypto).allowance(_msgSender(),address(this)) >= amount && ERC20(crypto).balanceOf(bidFound.from) >= amount) {\r\n                    _bid = bidFound;\r\n                }\r\n            }\r\n        }\r\n        require(_bid.from != address(0));\r\n        if(settings[collection][tokenId].is721) {\r\n            validate721(collection,tokenId,_msgSender());\r\n            ERC20(_bid.crypto).transferFrom(_bid.from ,_msgSender(), _bid.amount);\r\n            ERC721(collection).safeTransferFrom(_msgSender(),_bid.from,tokenId);\r\n        } else {\r\n            validate1155(collection,tokenId,_msgSender());\r\n            ERC20(_bid.crypto).transferFrom(_bid.from ,_msgSender(), _bid.amount);\r\n            ERC1155(collection).safeTransferFrom(_msgSender(),_bid.from,tokenId,1,\"\");\r\n        }\r\n        emit AuctionFinish(_bid.from,collection,tokenId,_bid.crypto, _bid.amount);\r\n        delete settings[collection][tokenId];\r\n        return true;\r\n    }\r\n\r\n}",
  "sourcePath": "D:\\avocado\\persea_ipfs\\persea\\projects\\smart_contracts\\chivas\\contracts\\ExchangeNFT.sol",
  "compiler": {
    "name": "solc",
    "version": "0.8.7+commit.e28d00a7.Emscripten.clang"
  },
  "schemaVersion": "3.4.5",
  "updatedAt": "2022-05-11T13:38:29.805Z",
  "devdoc": {
    "details": "_Available since v1.0",
    "kind": "dev",
    "methods": {
      "initialize(address,address,uint256,uint256,uint256)": {
        "params": {
          "_acceptFee": "is the amount in USD"
        }
      },
      "owner()": {
        "details": "Returns the address of the current owner."
      },
      "paused()": {
        "details": "Returns true if the contract is paused, and false otherwise."
      },
      "renounceOwnership()": {
        "details": "Leaves the contract without owner. It will not be possible to call `onlyOwner` functions anymore. Can only be called by the current owner. NOTE: Renouncing ownership will leave the contract without an owner, thereby removing any functionality that is only available to the owner."
      },
      "setAcceptFee(uint256)": {
        "params": {
          "_acceptFee": "is the amount in USD"
        }
      },
      "transferOwnership(address)": {
        "details": "Transfers ownership of the contract to a new account (`newOwner`). Can only be called by the current owner."
      }
    },
    "version": 1
  },
  "userdoc": {
    "kind": "user",
    "methods": {
      "initialize(address,address,uint256,uint256,uint256)": {
        "notice": "NOTE: This ins de method to start to use this contract and unpause this Requirements:"
      },
      "setAcceptFee(uint256)": {
        "notice": "NOTE: _acceptFee is the amount in USD that de user pay to use this function, only de owner can change this amount by default is 2 USD Requirements:"
      },
      "setCancelFee(uint256)": {
        "notice": "NOTE: _cancelFee"
      },
      "setFee(uint256)": {
        "notice": "NOTE: _fee"
      }
    },
    "version": 1
  }
}