{
  "contractName": "MintList",
  "abi": [
    {
      "inputs": [
        {
          "internalType": "uint256",
          "name": "_minters_limit",
          "type": "uint256"
        }
      ],
      "stateMutability": "nonpayable",
      "type": "constructor"
    },
    {
      "anonymous": false,
      "inputs": [
        {
          "indexed": true,
          "internalType": "bytes32",
          "name": "role",
          "type": "bytes32"
        },
        {
          "indexed": true,
          "internalType": "bytes32",
          "name": "previousAdminRole",
          "type": "bytes32"
        },
        {
          "indexed": true,
          "internalType": "bytes32",
          "name": "newAdminRole",
          "type": "bytes32"
        }
      ],
      "name": "RoleAdminChanged",
      "type": "event"
    },
    {
      "anonymous": false,
      "inputs": [
        {
          "indexed": true,
          "internalType": "bytes32",
          "name": "role",
          "type": "bytes32"
        },
        {
          "indexed": true,
          "internalType": "address",
          "name": "account",
          "type": "address"
        },
        {
          "indexed": true,
          "internalType": "address",
          "name": "sender",
          "type": "address"
        }
      ],
      "name": "RoleGranted",
      "type": "event"
    },
    {
      "anonymous": false,
      "inputs": [
        {
          "indexed": true,
          "internalType": "bytes32",
          "name": "role",
          "type": "bytes32"
        },
        {
          "indexed": true,
          "internalType": "address",
          "name": "account",
          "type": "address"
        },
        {
          "indexed": true,
          "internalType": "address",
          "name": "sender",
          "type": "address"
        }
      ],
      "name": "RoleRevoked",
      "type": "event"
    },
    {
      "inputs": [],
      "name": "DEFAULT_ADMIN_ROLE",
      "outputs": [
        {
          "internalType": "bytes32",
          "name": "",
          "type": "bytes32"
        }
      ],
      "stateMutability": "view",
      "type": "function"
    },
    {
      "inputs": [],
      "name": "MINTER_ROLE",
      "outputs": [
        {
          "internalType": "bytes32",
          "name": "",
          "type": "bytes32"
        }
      ],
      "stateMutability": "view",
      "type": "function"
    },
    {
      "inputs": [
        {
          "internalType": "bytes32",
          "name": "role",
          "type": "bytes32"
        }
      ],
      "name": "getRoleAdmin",
      "outputs": [
        {
          "internalType": "bytes32",
          "name": "",
          "type": "bytes32"
        }
      ],
      "stateMutability": "view",
      "type": "function"
    },
    {
      "inputs": [
        {
          "internalType": "bytes32",
          "name": "role",
          "type": "bytes32"
        },
        {
          "internalType": "uint256",
          "name": "index",
          "type": "uint256"
        }
      ],
      "name": "getRoleMember",
      "outputs": [
        {
          "internalType": "address",
          "name": "",
          "type": "address"
        }
      ],
      "stateMutability": "view",
      "type": "function"
    },
    {
      "inputs": [
        {
          "internalType": "bytes32",
          "name": "role",
          "type": "bytes32"
        }
      ],
      "name": "getRoleMemberCount",
      "outputs": [
        {
          "internalType": "uint256",
          "name": "",
          "type": "uint256"
        }
      ],
      "stateMutability": "view",
      "type": "function"
    },
    {
      "inputs": [
        {
          "internalType": "bytes32",
          "name": "role",
          "type": "bytes32"
        },
        {
          "internalType": "address",
          "name": "account",
          "type": "address"
        }
      ],
      "name": "grantRole",
      "outputs": [],
      "stateMutability": "nonpayable",
      "type": "function"
    },
    {
      "inputs": [
        {
          "internalType": "bytes32",
          "name": "role",
          "type": "bytes32"
        },
        {
          "internalType": "address",
          "name": "account",
          "type": "address"
        }
      ],
      "name": "hasRole",
      "outputs": [
        {
          "internalType": "bool",
          "name": "",
          "type": "bool"
        }
      ],
      "stateMutability": "view",
      "type": "function"
    },
    {
      "inputs": [
        {
          "internalType": "bytes32",
          "name": "role",
          "type": "bytes32"
        },
        {
          "internalType": "address",
          "name": "account",
          "type": "address"
        }
      ],
      "name": "renounceRole",
      "outputs": [],
      "stateMutability": "nonpayable",
      "type": "function"
    },
    {
      "inputs": [
        {
          "internalType": "bytes32",
          "name": "role",
          "type": "bytes32"
        },
        {
          "internalType": "address",
          "name": "account",
          "type": "address"
        }
      ],
      "name": "revokeRole",
      "outputs": [],
      "stateMutability": "nonpayable",
      "type": "function"
    },
    {
      "inputs": [
        {
          "internalType": "bytes4",
          "name": "interfaceId",
          "type": "bytes4"
        }
      ],
      "name": "supportsInterface",
      "outputs": [
        {
          "internalType": "bool",
          "name": "",
          "type": "bool"
        }
      ],
      "stateMutability": "view",
      "type": "function"
    },
    {
      "inputs": [],
      "name": "subscribe",
      "outputs": [],
      "stateMutability": "nonpayable",
      "type": "function"
    },
    {
      "inputs": [],
      "name": "getCountMinters",
      "outputs": [
        {
          "internalType": "uint256",
          "name": "",
          "type": "uint256"
        }
      ],
      "stateMutability": "view",
      "type": "function"
    },
    {
      "inputs": [
        {
          "internalType": "address",
          "name": "minter",
          "type": "address"
        }
      ],
      "name": "isMinter",
      "outputs": [
        {
          "internalType": "bool",
          "name": "",
          "type": "bool"
        }
      ],
      "stateMutability": "view",
      "type": "function"
    }
  ],
  "bytecode": "0x608060405260006002553480156200001657600080fd5b5060405162001a1338038062001a1383398181016040528101906200003c91906200030c565b80600281905550620000586000801b336200005f60201b60201c565b5062000367565b6200007182826200007560201b60201c565b5050565b6200008c8282620000bd60201b620005df1760201c565b620000b88160016000858152602001908152602001600020620001ae60201b620006bf1790919060201c565b505050565b620000cf8282620001e660201b60201c565b620001aa57600160008084815260200190815260200160002060000160008373ffffffffffffffffffffffffffffffffffffffff1673ffffffffffffffffffffffffffffffffffffffff16815260200190815260200160002060006101000a81548160ff0219169083151502179055506200014f6200025060201b60201c565b73ffffffffffffffffffffffffffffffffffffffff168173ffffffffffffffffffffffffffffffffffffffff16837f2f8788117e7eff1d82e926ec794901d17c78024a50270940304540a733656f0d60405160405180910390a45b5050565b6000620001de836000018373ffffffffffffffffffffffffffffffffffffffff1660001b6200025860201b60201c565b905092915050565b600080600084815260200190815260200160002060000160008373ffffffffffffffffffffffffffffffffffffffff1673ffffffffffffffffffffffffffffffffffffffff16815260200190815260200160002060009054906101000a900460ff16905092915050565b600033905090565b60006200026c8383620002d260201b60201c565b620002c7578260000182908060018154018082558091505060019003906000526020600020016000909190919091505582600001805490508360010160008481526020019081526020016000208190555060019050620002cc565b600090505b92915050565b600080836001016000848152602001908152602001600020541415905092915050565b60008151905062000306816200034d565b92915050565b60006020828403121562000325576200032462000348565b5b60006200033584828501620002f5565b91505092915050565b6000819050919050565b600080fd5b62000358816200033e565b81146200036457600080fd5b50565b61169c80620003776000396000f3fe608060405234801561001057600080fd5b50600436106100cf5760003560e01c806391d148541161008c578063ca15c87311610066578063ca15c87314610224578063d539139314610254578063d547741f14610272578063d8bb78631461028e576100cf565b806391d14854146101a6578063a217fddf146101d6578063aa271e1a146101f4576100cf565b806301ffc9a7146100d4578063248a9ca3146101045780632f2ff15d1461013457806336568abe146101505780638f449a051461016c5780639010d07c14610176575b600080fd5b6100ee60048036038101906100e99190610f8f565b6102ac565b6040516100fb9190611166565b60405180910390f35b61011e60048036038101906101199190610ee2565b610326565b60405161012b9190611181565b60405180910390f35b61014e60048036038101906101499190610f0f565b610345565b005b61016a60048036038101906101659190610f0f565b610366565b005b6101746103e9565b005b610190600480360381019061018b9190610f4f565b610473565b60405161019d919061114b565b60405180910390f35b6101c060048036038101906101bb9190610f0f565b6104a2565b6040516101cd9190611166565b60405180910390f35b6101de61050c565b6040516101eb9190611181565b60405180910390f35b61020e60048036038101906102099190610eb5565b610513565b60405161021b9190611166565b60405180910390f35b61023e60048036038101906102399190610ee2565b610546565b60405161024b919061121e565b60405180910390f35b61025c61056a565b6040516102699190611181565b60405180910390f35b61028c60048036038101906102879190610f0f565b61058e565b005b6102966105af565b6040516102a3919061121e565b60405180910390f35b60007f5a05180f000000000000000000000000000000000000000000000000000000007bffffffffffffffffffffffffffffffffffffffffffffffffffffffff1916827bffffffffffffffffffffffffffffffffffffffffffffffffffffffff1916148061031f575061031e826106ef565b5b9050919050565b6000806000838152602001908152602001600020600101549050919050565b61034e82610326565b61035781610769565b610361838361077d565b505050565b61036e6107b1565b73ffffffffffffffffffffffffffffffffffffffff168173ffffffffffffffffffffffffffffffffffffffff16146103db576040517f08c379a00000000000000000000000000000000000000000000000000000000081526004016103d2906111fe565b60405180910390fd5b6103e582826107b9565b5050565b60006002541115610440576103fc6105af565b6002541161043f576040517f08c379a0000000000000000000000000000000000000000000000000000000008152600401610436906111de565b60405180910390fd5b5b6104717f9f2df0fed2c77648de5860a4cc508cd0818c85b8b8a1ab4ceeef8d981c8956a661046c6107b1565b6107ed565b565b600061049a82600160008681526020019081526020016000206107fb90919063ffffffff16565b905092915050565b600080600084815260200190815260200160002060000160008373ffffffffffffffffffffffffffffffffffffffff1673ffffffffffffffffffffffffffffffffffffffff16815260200190815260200160002060009054906101000a900460ff16905092915050565b6000801b81565b600061053f7f9f2df0fed2c77648de5860a4cc508cd0818c85b8b8a1ab4ceeef8d981c8956a6836104a2565b9050919050565b600061056360016000848152602001908152602001600020610815565b9050919050565b7f9f2df0fed2c77648de5860a4cc508cd0818c85b8b8a1ab4ceeef8d981c8956a681565b61059782610326565b6105a081610769565b6105aa83836107b9565b505050565b60006105da7f9f2df0fed2c77648de5860a4cc508cd0818c85b8b8a1ab4ceeef8d981c8956a6610546565b905090565b6105e982826104a2565b6106bb57600160008084815260200190815260200160002060000160008373ffffffffffffffffffffffffffffffffffffffff1673ffffffffffffffffffffffffffffffffffffffff16815260200190815260200160002060006101000a81548160ff0219169083151502179055506106606107b1565b73ffffffffffffffffffffffffffffffffffffffff168173ffffffffffffffffffffffffffffffffffffffff16837f2f8788117e7eff1d82e926ec794901d17c78024a50270940304540a733656f0d60405160405180910390a45b5050565b60006106e7836000018373ffffffffffffffffffffffffffffffffffffffff1660001b61082a565b905092915050565b60007f7965db0b000000000000000000000000000000000000000000000000000000007bffffffffffffffffffffffffffffffffffffffffffffffffffffffff1916827bffffffffffffffffffffffffffffffffffffffffffffffffffffffff1916148061076257506107618261089a565b5b9050919050565b61077a816107756107b1565b610904565b50565b61078782826105df565b6107ac81600160008581526020019081526020016000206106bf90919063ffffffff16565b505050565b600033905090565b6107c382826109a1565b6107e88160016000858152602001908152602001600020610a8290919063ffffffff16565b505050565b6107f7828261077d565b5050565b600061080a8360000183610ab2565b60001c905092915050565b600061082382600001610add565b9050919050565b60006108368383610aee565b61088f578260000182908060018154018082558091505060019003906000526020600020016000909190919091505582600001805490508360010160008481526020019081526020016000208190555060019050610894565b600090505b92915050565b60007f01ffc9a7000000000000000000000000000000000000000000000000000000007bffffffffffffffffffffffffffffffffffffffffffffffffffffffff1916827bffffffffffffffffffffffffffffffffffffffffffffffffffffffff1916149050919050565b61090e82826104a2565b61099d576109338173ffffffffffffffffffffffffffffffffffffffff166014610b11565b6109418360001c6020610b11565b604051602001610952929190611111565b6040516020818303038152906040526040517f08c379a0000000000000000000000000000000000000000000000000000000008152600401610994919061119c565b60405180910390fd5b5050565b6109ab82826104a2565b15610a7e57600080600084815260200190815260200160002060000160008373ffffffffffffffffffffffffffffffffffffffff1673ffffffffffffffffffffffffffffffffffffffff16815260200190815260200160002060006101000a81548160ff021916908315150217905550610a236107b1565b73ffffffffffffffffffffffffffffffffffffffff168173ffffffffffffffffffffffffffffffffffffffff16837ff6391f5c32d9c69d2a47ea670b442974b53935d1edc7fd64eb21e047a839171b60405160405180910390a45b5050565b6000610aaa836000018373ffffffffffffffffffffffffffffffffffffffff1660001b610d4d565b905092915050565b6000826000018281548110610aca57610ac961147d565b5b9060005260206000200154905092915050565b600081600001805490509050919050565b600080836001016000848152602001908152602001600020541415905092915050565b606060006002836002610b2491906112b6565b610b2e9190611260565b67ffffffffffffffff811115610b4757610b466114ac565b5b6040519080825280601f01601f191660200182016040528015610b795781602001600182028036833780820191505090505b5090507f300000000000000000000000000000000000000000000000000000000000000081600081518110610bb157610bb061147d565b5b60200101907effffffffffffffffffffffffffffffffffffffffffffffffffffffffffffff1916908160001a9053507f780000000000000000000000000000000000000000000000000000000000000081600181518110610c1557610c1461147d565b5b60200101907effffffffffffffffffffffffffffffffffffffffffffffffffffffffffffff1916908160001a90535060006001846002610c5591906112b6565b610c5f9190611260565b90505b6001811115610cff577f3031323334353637383961626364656600000000000000000000000000000000600f861660108110610ca157610ca061147d565b5b1a60f81b828281518110610cb857610cb761147d565b5b60200101907effffffffffffffffffffffffffffffffffffffffffffffffffffffffffffff1916908160001a905350600485901c945080610cf8906113f5565b9050610c62565b5060008414610d43576040517f08c379a0000000000000000000000000000000000000000000000000000000008152600401610d3a906111be565b60405180910390fd5b8091505092915050565b60008083600101600084815260200190815260200160002054905060008114610e55576000600182610d7f9190611310565b9050600060018660000180549050610d979190611310565b9050818114610e06576000866000018281548110610db857610db761147d565b5b9060005260206000200154905080876000018481548110610ddc57610ddb61147d565b5b90600052602060002001819055508387600101600083815260200190815260200160002081905550505b85600001805480610e1a57610e1961144e565b5b600190038181906000526020600020016000905590558560010160008681526020019081526020016000206000905560019350505050610e5b565b60009150505b92915050565b600081359050610e708161160a565b92915050565b600081359050610e8581611621565b92915050565b600081359050610e9a81611638565b92915050565b600081359050610eaf8161164f565b92915050565b600060208284031215610ecb57610eca6114db565b5b6000610ed984828501610e61565b91505092915050565b600060208284031215610ef857610ef76114db565b5b6000610f0684828501610e76565b91505092915050565b60008060408385031215610f2657610f256114db565b5b6000610f3485828601610e76565b9250506020610f4585828601610e61565b9150509250929050565b60008060408385031215610f6657610f656114db565b5b6000610f7485828601610e76565b9250506020610f8585828601610ea0565b9150509250929050565b600060208284031215610fa557610fa46114db565b5b6000610fb384828501610e8b565b91505092915050565b610fc581611344565b82525050565b610fd481611356565b82525050565b610fe381611362565b82525050565b6000610ff482611239565b610ffe8185611244565b935061100e8185602086016113c2565b611017816114e0565b840191505092915050565b600061102d82611239565b6110378185611255565b93506110478185602086016113c2565b80840191505092915050565b6000611060602083611244565b915061106b826114f1565b602082019050919050565b6000611083601783611255565b915061108e8261151a565b601782019050919050565b60006110a6603083611244565b91506110b182611543565b604082019050919050565b60006110c9601183611255565b91506110d482611592565b601182019050919050565b60006110ec602f83611244565b91506110f7826115bb565b604082019050919050565b61110b816113b8565b82525050565b600061111c82611076565b91506111288285611022565b9150611133826110bc565b915061113f8284611022565b91508190509392505050565b60006020820190506111606000830184610fbc565b92915050565b600060208201905061117b6000830184610fcb565b92915050565b60006020820190506111966000830184610fda565b92915050565b600060208201905081810360008301526111b68184610fe9565b905092915050565b600060208201905081810360008301526111d781611053565b9050919050565b600060208201905081810360008301526111f781611099565b9050919050565b60006020820190508181036000830152611217816110df565b9050919050565b60006020820190506112336000830184611102565b92915050565b600081519050919050565b600082825260208201905092915050565b600081905092915050565b600061126b826113b8565b9150611276836113b8565b9250827fffffffffffffffffffffffffffffffffffffffffffffffffffffffffffffffff038211156112ab576112aa61141f565b5b828201905092915050565b60006112c1826113b8565b91506112cc836113b8565b9250817fffffffffffffffffffffffffffffffffffffffffffffffffffffffffffffffff04831182151516156113055761130461141f565b5b828202905092915050565b600061131b826113b8565b9150611326836113b8565b9250828210156113395761133861141f565b5b828203905092915050565b600061134f82611398565b9050919050565b60008115159050919050565b6000819050919050565b60007fffffffff0000000000000000000000000000000000000000000000000000000082169050919050565b600073ffffffffffffffffffffffffffffffffffffffff82169050919050565b6000819050919050565b60005b838110156113e05780820151818401526020810190506113c5565b838111156113ef576000848401525b50505050565b6000611400826113b8565b915060008214156114145761141361141f565b5b600182039050919050565b7f4e487b7100000000000000000000000000000000000000000000000000000000600052601160045260246000fd5b7f4e487b7100000000000000000000000000000000000000000000000000000000600052603160045260246000fd5b7f4e487b7100000000000000000000000000000000000000000000000000000000600052603260045260246000fd5b7f4e487b7100000000000000000000000000000000000000000000000000000000600052604160045260246000fd5b600080fd5b6000601f19601f8301169050919050565b7f537472696e67733a20686578206c656e67746820696e73756666696369656e74600082015250565b7f416363657373436f6e74726f6c3a206163636f756e7420000000000000000000600082015250565b7f4d696e744c6973743a2074686973206c6973742072656163686564207468652060008201527f6c696d6974206f66206d656d6265727300000000000000000000000000000000602082015250565b7f206973206d697373696e6720726f6c6520000000000000000000000000000000600082015250565b7f416363657373436f6e74726f6c3a2063616e206f6e6c792072656e6f756e636560008201527f20726f6c657320666f722073656c660000000000000000000000000000000000602082015250565b61161381611344565b811461161e57600080fd5b50565b61162a81611362565b811461163557600080fd5b50565b6116418161136c565b811461164c57600080fd5b50565b611658816113b8565b811461166357600080fd5b5056fea264697066735822122001b0297e786d70861a91aa85855fb60e4d601af3fecb45c1bdee1caafaaefaae64736f6c63430008070033",
  "immutableReferences": {},
  "source": "// SPDX-License-Identifier: MIT\r\npragma solidity ^0.8.5;\r\npragma experimental ABIEncoderV2;\r\n\r\nimport \"@openzeppelin/contracts/access/AccessControlEnumerable.sol\";\r\n\r\ncontract MintList is AccessControlEnumerable {\r\n    bytes32 public constant MINTER_ROLE = keccak256(\"MINTER_ROLE\");\r\n\r\n\r\n    uint256 minters_limit = 0;\r\n    constructor(uint256 _minters_limit) {\r\n        minters_limit = _minters_limit;\r\n        _setupRole(DEFAULT_ADMIN_ROLE, msg.sender);\r\n    }\r\n\r\n    function subscribe() public {\r\n        if(minters_limit > 0) {\r\n            require(minters_limit > getCountMinters(), \"MintList: this list reached the limit of members\");\r\n        }\r\n        _setupRole(MINTER_ROLE, _msgSender());\r\n    }\r\n\r\n    function getCountMinters()  public view returns (uint256) {\r\n        return getRoleMemberCount(MINTER_ROLE);\r\n    }\r\n\r\n    function isMinter(address minter) public view returns (bool) {\r\n        return hasRole(MINTER_ROLE, minter);\r\n    }\r\n}",
  "sourcePath": "D:\\avocado\\persea_ipfs\\persea-contracts\\contracts\\MintList.sol",
  "compiler": {
    "name": "solc",
    "version": "0.8.7+commit.e28d00a7.Emscripten.clang"
  },
  "schemaVersion": "3.4.5",
  "updatedAt": "2022-10-28T18:23:42.522Z",
  "devdoc": {
    "kind": "dev",
    "methods": {
      "getRoleAdmin(bytes32)": {
        "details": "Returns the admin role that controls `role`. See {grantRole} and {revokeRole}. To change a role's admin, use {_setRoleAdmin}."
      },
      "getRoleMember(bytes32,uint256)": {
        "details": "Returns one of the accounts that have `role`. `index` must be a value between 0 and {getRoleMemberCount}, non-inclusive. Role bearers are not sorted in any particular way, and their ordering may change at any point. WARNING: When using {getRoleMember} and {getRoleMemberCount}, make sure you perform all queries on the same block. See the following https://forum.openzeppelin.com/t/iterating-over-elements-on-enumerableset-in-openzeppelin-contracts/2296[forum post] for more information."
      },
      "getRoleMemberCount(bytes32)": {
        "details": "Returns the number of accounts that have `role`. Can be used together with {getRoleMember} to enumerate all bearers of a role."
      },
      "grantRole(bytes32,address)": {
        "details": "Grants `role` to `account`. If `account` had not been already granted `role`, emits a {RoleGranted} event. Requirements: - the caller must have ``role``'s admin role. May emit a {RoleGranted} event."
      },
      "hasRole(bytes32,address)": {
        "details": "Returns `true` if `account` has been granted `role`."
      },
      "renounceRole(bytes32,address)": {
        "details": "Revokes `role` from the calling account. Roles are often managed via {grantRole} and {revokeRole}: this function's purpose is to provide a mechanism for accounts to lose their privileges if they are compromised (such as when a trusted device is misplaced). If the calling account had been revoked `role`, emits a {RoleRevoked} event. Requirements: - the caller must be `account`. May emit a {RoleRevoked} event."
      },
      "revokeRole(bytes32,address)": {
        "details": "Revokes `role` from `account`. If `account` had been granted `role`, emits a {RoleRevoked} event. Requirements: - the caller must have ``role``'s admin role. May emit a {RoleRevoked} event."
      },
      "supportsInterface(bytes4)": {
        "details": "See {IERC165-supportsInterface}."
      }
    },
    "version": 1
  },
  "userdoc": {
    "kind": "user",
    "methods": {},
    "version": 1
  }
}