{
  "contractName": "Collectibles",
  "abi": [
    {
      "inputs": [
        {
          "internalType": "string",
          "name": "name",
          "type": "string"
        },
        {
          "internalType": "string",
          "name": "symbol",
          "type": "string"
        },
        {
          "internalType": "address[]",
          "name": "_wallets",
          "type": "address[]"
        },
        {
          "internalType": "uint256[]",
          "name": "_percentages",
          "type": "uint256[]"
        }
      ],
      "stateMutability": "nonpayable",
      "type": "constructor"
    },
    {
      "anonymous": false,
      "inputs": [
        {
          "indexed": true,
          "internalType": "address",
          "name": "owner",
          "type": "address"
        },
        {
          "indexed": true,
          "internalType": "address",
          "name": "approved",
          "type": "address"
        },
        {
          "indexed": true,
          "internalType": "uint256",
          "name": "tokenId",
          "type": "uint256"
        }
      ],
      "name": "Approval",
      "type": "event"
    },
    {
      "anonymous": false,
      "inputs": [
        {
          "indexed": true,
          "internalType": "address",
          "name": "owner",
          "type": "address"
        },
        {
          "indexed": true,
          "internalType": "address",
          "name": "operator",
          "type": "address"
        },
        {
          "indexed": false,
          "internalType": "bool",
          "name": "approved",
          "type": "bool"
        }
      ],
      "name": "ApprovalForAll",
      "type": "event"
    },
    {
      "anonymous": false,
      "inputs": [
        {
          "indexed": true,
          "internalType": "address",
          "name": "previousOwner",
          "type": "address"
        },
        {
          "indexed": true,
          "internalType": "address",
          "name": "newOwner",
          "type": "address"
        }
      ],
      "name": "OwnershipTransferred",
      "type": "event"
    },
    {
      "anonymous": false,
      "inputs": [
        {
          "indexed": true,
          "internalType": "address",
          "name": "from",
          "type": "address"
        },
        {
          "indexed": true,
          "internalType": "address",
          "name": "to",
          "type": "address"
        },
        {
          "indexed": true,
          "internalType": "uint256",
          "name": "tokenId",
          "type": "uint256"
        }
      ],
      "name": "Transfer",
      "type": "event"
    },
    {
      "inputs": [
        {
          "internalType": "address",
          "name": "to",
          "type": "address"
        },
        {
          "internalType": "uint256",
          "name": "tokenId",
          "type": "uint256"
        }
      ],
      "name": "approve",
      "outputs": [],
      "stateMutability": "nonpayable",
      "type": "function"
    },
    {
      "inputs": [
        {
          "internalType": "address",
          "name": "owner",
          "type": "address"
        }
      ],
      "name": "balanceOf",
      "outputs": [
        {
          "internalType": "uint256",
          "name": "",
          "type": "uint256"
        }
      ],
      "stateMutability": "view",
      "type": "function"
    },
    {
      "inputs": [
        {
          "internalType": "uint256",
          "name": "tokenId",
          "type": "uint256"
        }
      ],
      "name": "getApproved",
      "outputs": [
        {
          "internalType": "address",
          "name": "",
          "type": "address"
        }
      ],
      "stateMutability": "view",
      "type": "function"
    },
    {
      "inputs": [],
      "name": "getResalePercentage",
      "outputs": [
        {
          "internalType": "address[]",
          "name": "",
          "type": "address[]"
        },
        {
          "internalType": "uint256[]",
          "name": "",
          "type": "uint256[]"
        }
      ],
      "stateMutability": "view",
      "type": "function"
    },
    {
      "inputs": [
        {
          "internalType": "address",
          "name": "owner",
          "type": "address"
        },
        {
          "internalType": "address",
          "name": "operator",
          "type": "address"
        }
      ],
      "name": "isApprovedForAll",
      "outputs": [
        {
          "internalType": "bool",
          "name": "",
          "type": "bool"
        }
      ],
      "stateMutability": "view",
      "type": "function"
    },
    {
      "inputs": [
        {
          "internalType": "string",
          "name": "URI",
          "type": "string"
        }
      ],
      "name": "mint",
      "outputs": [
        {
          "internalType": "uint256",
          "name": "",
          "type": "uint256"
        }
      ],
      "stateMutability": "nonpayable",
      "type": "function"
    },
    {
      "inputs": [],
      "name": "name",
      "outputs": [
        {
          "internalType": "string",
          "name": "",
          "type": "string"
        }
      ],
      "stateMutability": "view",
      "type": "function"
    },
    {
      "inputs": [],
      "name": "owner",
      "outputs": [
        {
          "internalType": "address",
          "name": "",
          "type": "address"
        }
      ],
      "stateMutability": "view",
      "type": "function"
    },
    {
      "inputs": [
        {
          "internalType": "uint256",
          "name": "tokenId",
          "type": "uint256"
        }
      ],
      "name": "ownerOf",
      "outputs": [
        {
          "internalType": "address",
          "name": "",
          "type": "address"
        }
      ],
      "stateMutability": "view",
      "type": "function"
    },
    {
      "inputs": [],
      "name": "renounceOwnership",
      "outputs": [],
      "stateMutability": "nonpayable",
      "type": "function"
    },
    {
      "inputs": [
        {
          "internalType": "address",
          "name": "from",
          "type": "address"
        },
        {
          "internalType": "address",
          "name": "to",
          "type": "address"
        },
        {
          "internalType": "uint256",
          "name": "tokenId",
          "type": "uint256"
        }
      ],
      "name": "safeTransferFrom",
      "outputs": [],
      "stateMutability": "nonpayable",
      "type": "function"
    },
    {
      "inputs": [
        {
          "internalType": "address",
          "name": "from",
          "type": "address"
        },
        {
          "internalType": "address",
          "name": "to",
          "type": "address"
        },
        {
          "internalType": "uint256",
          "name": "tokenId",
          "type": "uint256"
        },
        {
          "internalType": "bytes",
          "name": "_data",
          "type": "bytes"
        }
      ],
      "name": "safeTransferFrom",
      "outputs": [],
      "stateMutability": "nonpayable",
      "type": "function"
    },
    {
      "inputs": [
        {
          "internalType": "address",
          "name": "operator",
          "type": "address"
        },
        {
          "internalType": "bool",
          "name": "approved",
          "type": "bool"
        }
      ],
      "name": "setApprovalForAll",
      "outputs": [],
      "stateMutability": "nonpayable",
      "type": "function"
    },
    {
      "inputs": [
        {
          "internalType": "address[]",
          "name": "_wallets",
          "type": "address[]"
        },
        {
          "internalType": "uint256[]",
          "name": "_percentages",
          "type": "uint256[]"
        }
      ],
      "name": "setResalePercentage",
      "outputs": [
        {
          "internalType": "address[]",
          "name": "",
          "type": "address[]"
        },
        {
          "internalType": "uint256[]",
          "name": "",
          "type": "uint256[]"
        }
      ],
      "stateMutability": "nonpayable",
      "type": "function"
    },
    {
      "inputs": [
        {
          "internalType": "bytes4",
          "name": "interfaceId",
          "type": "bytes4"
        }
      ],
      "name": "supportsInterface",
      "outputs": [
        {
          "internalType": "bool",
          "name": "",
          "type": "bool"
        }
      ],
      "stateMutability": "view",
      "type": "function"
    },
    {
      "inputs": [],
      "name": "symbol",
      "outputs": [
        {
          "internalType": "string",
          "name": "",
          "type": "string"
        }
      ],
      "stateMutability": "view",
      "type": "function"
    },
    {
      "inputs": [
        {
          "internalType": "uint256",
          "name": "tokenId",
          "type": "uint256"
        }
      ],
      "name": "tokenURI",
      "outputs": [
        {
          "internalType": "string",
          "name": "",
          "type": "string"
        }
      ],
      "stateMutability": "view",
      "type": "function"
    },
    {
      "inputs": [
        {
          "internalType": "address",
          "name": "from",
          "type": "address"
        },
        {
          "internalType": "address",
          "name": "to",
          "type": "address"
        },
        {
          "internalType": "uint256",
          "name": "tokenId",
          "type": "uint256"
        }
      ],
      "name": "transferFrom",
      "outputs": [],
      "stateMutability": "nonpayable",
      "type": "function"
    },
    {
      "inputs": [
        {
          "internalType": "address",
          "name": "newOwner",
          "type": "address"
        }
      ],
      "name": "transferOwnership",
      "outputs": [],
      "stateMutability": "nonpayable",
      "type": "function"
    }
  ],
  "bytecode": "60806040523480156200001157600080fd5b50604051620043513803806200435183398181016040528101906200003791906200072d565b838381600090805190602001906200005192919062000394565b5080600190805190602001906200006a92919062000394565b5050506200008d62000081620000ab60201b60201c565b620000b360201b60201c565b6200009f82826200017960201b60201c565b50505050505062000b74565b600033905090565b6000600760009054906101000a900473ffffffffffffffffffffffffffffffffffffffff16905081600760006101000a81548173ffffffffffffffffffffffffffffffffffffffff021916908373ffffffffffffffffffffffffffffffffffffffff1602179055508173ffffffffffffffffffffffffffffffffffffffff168173ffffffffffffffffffffffffffffffffffffffff167f8be0079c531659141344cd1fd0a4f28419497f9722a3daafe3b4186f6b6457e060405160405180910390a35050565b6060806200018c620000ab60201b60201c565b73ffffffffffffffffffffffffffffffffffffffff16620001b26200036a60201b60201c565b73ffffffffffffffffffffffffffffffffffffffff16146200020b576040517f08c379a0000000000000000000000000000000000000000000000000000000008152600401620002029062000842565b60405180910390fd5b600a84511080156200021e5750600a8351105b6200022857600080fd5b60005b835181116200024a578080620002419062000a12565b9150506200022b565b5083600890805190602001906200026392919062000425565b5082600990805190602001906200027c929190620004b4565b5060086009818054806020026020016040519081016040528092919081815260200182805480156200030457602002820191906000526020600020905b8160009054906101000a900473ffffffffffffffffffffffffffffffffffffffff1673ffffffffffffffffffffffffffffffffffffffff1681526020019060010190808311620002b9575b50505050509150808054806020026020016040519081016040528092919081815260200182805480156200035857602002820191906000526020600020905b81548152602001906001019080831162000343575b50505050509050915091509250929050565b6000600760009054906101000a900473ffffffffffffffffffffffffffffffffffffffff16905090565b828054620003a290620009a6565b90600052602060002090601f016020900481019282620003c6576000855562000412565b82601f10620003e157805160ff191683800117855562000412565b8280016001018555821562000412579182015b8281111562000411578251825591602001919060010190620003f4565b5b50905062000421919062000506565b5090565b828054828255906000526020600020908101928215620004a1579160200282015b82811115620004a05782518260006101000a81548173ffffffffffffffffffffffffffffffffffffffff021916908373ffffffffffffffffffffffffffffffffffffffff1602179055509160200191906001019062000446565b5b509050620004b0919062000506565b5090565b828054828255906000526020600020908101928215620004f3579160200282015b82811115620004f2578251825591602001919060010190620004d5565b5b50905062000502919062000506565b5090565b5b808211156200052157600081600090555060010162000507565b5090565b60006200053c62000536846200088d565b62000864565b9050808382526020820190508285602086028201111562000562576200056162000af2565b5b60005b858110156200059657816200057b888262000666565b84526020840193506020830192505060018101905062000565565b5050509392505050565b6000620005b7620005b184620008bc565b62000864565b90508083825260208201905082856020860282011115620005dd57620005dc62000af2565b5b60005b85811015620006115781620005f6888262000716565b845260208401935060208301925050600181019050620005e0565b5050509392505050565b6000620006326200062c84620008eb565b62000864565b90508281526020810184848401111562000651576200065062000af7565b5b6200065e84828562000970565b509392505050565b600081519050620006778162000b40565b92915050565b600082601f83011262000695576200069462000aed565b5b8151620006a784826020860162000525565b91505092915050565b600082601f830112620006c857620006c762000aed565b5b8151620006da848260208601620005a0565b91505092915050565b600082601f830112620006fb57620006fa62000aed565b5b81516200070d8482602086016200061b565b91505092915050565b600081519050620007278162000b5a565b92915050565b600080600080608085870312156200074a576200074962000b01565b5b600085015167ffffffffffffffff8111156200076b576200076a62000afc565b5b6200077987828801620006e3565b945050602085015167ffffffffffffffff8111156200079d576200079c62000afc565b5b620007ab87828801620006e3565b935050604085015167ffffffffffffffff811115620007cf57620007ce62000afc565b5b620007dd878288016200067d565b925050606085015167ffffffffffffffff81111562000801576200080062000afc565b5b6200080f87828801620006b0565b91505092959194509250565b60006200082a60208362000921565b9150620008378262000b17565b602082019050919050565b600060208201905081810360008301526200085d816200081b565b9050919050565b60006200087062000883565b90506200087e8282620009dc565b919050565b6000604051905090565b600067ffffffffffffffff821115620008ab57620008aa62000abe565b5b602082029050602081019050919050565b600067ffffffffffffffff821115620008da57620008d962000abe565b5b602082029050602081019050919050565b600067ffffffffffffffff82111562000909576200090862000abe565b5b620009148262000b06565b9050602081019050919050565b600082825260208201905092915050565b60006200093f8262000946565b9050919050565b600073ffffffffffffffffffffffffffffffffffffffff82169050919050565b6000819050919050565b60005b838110156200099057808201518184015260208101905062000973565b83811115620009a0576000848401525b50505050565b60006002820490506001821680620009bf57607f821691505b60208210811415620009d657620009d562000a8f565b5b50919050565b620009e78262000b06565b810181811067ffffffffffffffff8211171562000a095762000a0862000abe565b5b80604052505050565b600062000a1f8262000966565b91507fffffffffffffffffffffffffffffffffffffffffffffffffffffffffffffffff82141562000a555762000a5462000a60565b5b600182019050919050565b7f4e487b7100000000000000000000000000000000000000000000000000000000600052601160045260246000fd5b7f4e487b7100000000000000000000000000000000000000000000000000000000600052602260045260246000fd5b7f4e487b7100000000000000000000000000000000000000000000000000000000600052604160045260246000fd5b600080fd5b600080fd5b600080fd5b600080fd5b600080fd5b6000601f19601f8301169050919050565b7f4f776e61626c653a2063616c6c6572206973206e6f7420746865206f776e6572600082015250565b62000b4b8162000932565b811462000b5757600080fd5b50565b62000b658162000966565b811462000b7157600080fd5b50565b6137cd8062000b846000396000f3fe608060405234801561001057600080fd5b50600436106101215760003560e01c806370a08231116100ad578063b88d4fde11610071578063b88d4fde1461030a578063c87b56dd14610326578063d85d3d2714610356578063e985e9c514610386578063f2fde38b146103b657610121565b806370a0823114610278578063715018a6146102a85780638da5cb5b146102b257806395d89b41146102d0578063a22cb465146102ee57610121565b8063095ea7b3116100f4578063095ea7b3146101c357806323b872dd146101df57806342842e0e146101fb578063545bb305146102175780636352211e1461024857610121565b806301ffc9a71461012657806304cd783b1461015657806306fdde0314610175578063081812fc14610193575b600080fd5b610140600480360381019061013b91906124d4565b6103d2565b60405161014d9190612ab6565b60405180910390f35b61015e6104b4565b60405161016c929190612a7f565b60405180910390f35b61017d61059d565b60405161018a9190612ad1565b60405180910390f35b6101ad60048036038101906101a89190612577565b61062f565b6040516101ba9190612a18565b60405180910390f35b6101dd60048036038101906101d8919061241c565b6106b4565b005b6101f960048036038101906101f49190612306565b6107cc565b005b61021560048036038101906102109190612306565b61082c565b005b610231600480360381019061022c919061245c565b61084c565b60405161023f929190612a7f565b60405180910390f35b610262600480360381019061025d9190612577565b610a1c565b60405161026f9190612a18565b60405180910390f35b610292600480360381019061028d9190612299565b610ace565b60405161029f9190612d33565b60405180910390f35b6102b0610b86565b005b6102ba610c0e565b6040516102c79190612a18565b60405180910390f35b6102d8610c38565b6040516102e59190612ad1565b60405180910390f35b610308600480360381019061030391906123dc565b610cca565b005b610324600480360381019061031f9190612359565b610ce0565b005b610340600480360381019061033b9190612577565b610d42565b60405161034d9190612ad1565b60405180910390f35b610370600480360381019061036b919061252e565b610e94565b60405161037d9190612d33565b60405180910390f35b6103a0600480360381019061039b91906122c6565b610f4e565b6040516103ad9190612ab6565b60405180910390f35b6103d060048036038101906103cb9190612299565b610fe2565b005b60007f80ac58cd000000000000000000000000000000000000000000000000000000007bffffffffffffffffffffffffffffffffffffffffffffffffffffffff1916827bffffffffffffffffffffffffffffffffffffffffffffffffffffffff1916148061049d57507f5b5e139f000000000000000000000000000000000000000000000000000000007bffffffffffffffffffffffffffffffffffffffffffffffffffffffff1916827bffffffffffffffffffffffffffffffffffffffffffffffffffffffff1916145b806104ad57506104ac826110da565b5b9050919050565b606080600860098180548060200260200160405190810160405280929190818152602001828054801561053c57602002820191906000526020600020905b8160009054906101000a900473ffffffffffffffffffffffffffffffffffffffff1673ffffffffffffffffffffffffffffffffffffffff16815260200190600101908083116104f2575b505050505091508080548060200260200160405190810160405280929190818152602001828054801561058e57602002820191906000526020600020905b81548152602001906001019080831161057a575b50505050509050915091509091565b6060600080546105ac90613053565b80601f01602080910402602001604051908101604052809291908181526020018280546105d890613053565b80156106255780601f106105fa57610100808354040283529160200191610625565b820191906000526020600020905b81548152906001019060200180831161060857829003601f168201915b5050505050905090565b600061063a82611144565b610679576040517f08c379a000000000000000000000000000000000000000000000000000000000815260040161067090612c93565b60405180910390fd5b6004600083815260200190815260200160002060009054906101000a900473ffffffffffffffffffffffffffffffffffffffff169050919050565b60006106bf82610a1c565b90508073ffffffffffffffffffffffffffffffffffffffff168373ffffffffffffffffffffffffffffffffffffffff161415610730576040517f08c379a000000000000000000000000000000000000000000000000000000000815260040161072790612cf3565b60405180910390fd5b8073ffffffffffffffffffffffffffffffffffffffff1661074f6111b0565b73ffffffffffffffffffffffffffffffffffffffff16148061077e575061077d816107786111b0565b610f4e565b5b6107bd576040517f08c379a00000000000000000000000000000000000000000000000000000000081526004016107b490612bd3565b60405180910390fd5b6107c783836111b8565b505050565b6107dd6107d76111b0565b82611271565b61081c576040517f08c379a000000000000000000000000000000000000000000000000000000000815260040161081390612d13565b60405180910390fd5b61082783838361134f565b505050565b61084783838360405180602001604052806000815250610ce0565b505050565b6060806108576111b0565b73ffffffffffffffffffffffffffffffffffffffff16610875610c0e565b73ffffffffffffffffffffffffffffffffffffffff16146108cb576040517f08c379a00000000000000000000000000000000000000000000000000000000081526004016108c290612cb3565b60405180910390fd5b600a84511080156108dd5750600a8351105b6108e657600080fd5b60005b835181116109045780806108fc906130b6565b9150506108e9565b50836008908051906020019061091b929190611e9a565b508260099080519060200190610932929190611f24565b5060086009818054806020026020016040519081016040528092919081815260200182805480156109b857602002820191906000526020600020905b8160009054906101000a900473ffffffffffffffffffffffffffffffffffffffff1673ffffffffffffffffffffffffffffffffffffffff168152602001906001019080831161096e575b5050505050915080805480602002602001604051908101604052809291908181526020018280548015610a0a57602002820191906000526020600020905b8154815260200190600101908083116109f6575b50505050509050915091509250929050565b6000806002600084815260200190815260200160002060009054906101000a900473ffffffffffffffffffffffffffffffffffffffff169050600073ffffffffffffffffffffffffffffffffffffffff168173ffffffffffffffffffffffffffffffffffffffff161415610ac5576040517f08c379a0000000000000000000000000000000000000000000000000000000008152600401610abc90612c13565b60405180910390fd5b80915050919050565b60008073ffffffffffffffffffffffffffffffffffffffff168273ffffffffffffffffffffffffffffffffffffffff161415610b3f576040517f08c379a0000000000000000000000000000000000000000000000000000000008152600401610b3690612bf3565b60405180910390fd5b600360008373ffffffffffffffffffffffffffffffffffffffff1673ffffffffffffffffffffffffffffffffffffffff168152602001908152602001600020549050919050565b610b8e6111b0565b73ffffffffffffffffffffffffffffffffffffffff16610bac610c0e565b73ffffffffffffffffffffffffffffffffffffffff1614610c02576040517f08c379a0000000000000000000000000000000000000000000000000000000008152600401610bf990612cb3565b60405180910390fd5b610c0c60006115b6565b565b6000600760009054906101000a900473ffffffffffffffffffffffffffffffffffffffff16905090565b606060018054610c4790613053565b80601f0160208091040260200160405190810160405280929190818152602001828054610c7390613053565b8015610cc05780601f10610c9557610100808354040283529160200191610cc0565b820191906000526020600020905b815481529060010190602001808311610ca357829003601f168201915b5050505050905090565b610cdc610cd56111b0565b838361167c565b5050565b610cf1610ceb6111b0565b83611271565b610d30576040517f08c379a0000000000000000000000000000000000000000000000000000000008152600401610d2790612d13565b60405180910390fd5b610d3c848484846117e9565b50505050565b6060610d4d82611144565b610d8c576040517f08c379a0000000000000000000000000000000000000000000000000000000008152600401610d8390612c73565b60405180910390fd5b6000600660008481526020019081526020016000208054610dac90613053565b80601f0160208091040260200160405190810160405280929190818152602001828054610dd890613053565b8015610e255780601f10610dfa57610100808354040283529160200191610e25565b820191906000526020600020905b815481529060010190602001808311610e0857829003601f168201915b505050505090506000610e36611845565b9050600081511415610e4c578192505050610e8f565b600082511115610e81578082604051602001610e699291906129f4565b60405160208183030381529060405292505050610e8f565b610e8a8461185c565b925050505b919050565b6000610e9e6111b0565b73ffffffffffffffffffffffffffffffffffffffff16610ebc610c0e565b73ffffffffffffffffffffffffffffffffffffffff1614610f12576040517f08c379a0000000000000000000000000000000000000000000000000000000008152600401610f0990612cb3565b60405180910390fd5b610f1c600a611903565b6000610f28600a611919565b9050610f3b610f356111b0565b82611927565b610f458184611b01565b80915050919050565b6000600560008473ffffffffffffffffffffffffffffffffffffffff1673ffffffffffffffffffffffffffffffffffffffff16815260200190815260200160002060008373ffffffffffffffffffffffffffffffffffffffff1673ffffffffffffffffffffffffffffffffffffffff16815260200190815260200160002060009054906101000a900460ff16905092915050565b610fea6111b0565b73ffffffffffffffffffffffffffffffffffffffff16611008610c0e565b73ffffffffffffffffffffffffffffffffffffffff161461105e576040517f08c379a000000000000000000000000000000000000000000000000000000000815260040161105590612cb3565b60405180910390fd5b600073ffffffffffffffffffffffffffffffffffffffff168173ffffffffffffffffffffffffffffffffffffffff1614156110ce576040517f08c379a00000000000000000000000000000000000000000000000000000000081526004016110c590612b13565b60405180910390fd5b6110d7816115b6565b50565b60007f01ffc9a7000000000000000000000000000000000000000000000000000000007bffffffffffffffffffffffffffffffffffffffffffffffffffffffff1916827bffffffffffffffffffffffffffffffffffffffffffffffffffffffff1916149050919050565b60008073ffffffffffffffffffffffffffffffffffffffff166002600084815260200190815260200160002060009054906101000a900473ffffffffffffffffffffffffffffffffffffffff1673ffffffffffffffffffffffffffffffffffffffff1614159050919050565b600033905090565b816004600083815260200190815260200160002060006101000a81548173ffffffffffffffffffffffffffffffffffffffff021916908373ffffffffffffffffffffffffffffffffffffffff160217905550808273ffffffffffffffffffffffffffffffffffffffff1661122b83610a1c565b73ffffffffffffffffffffffffffffffffffffffff167f8c5be1e5ebec7d5bd14f71427d1e84f3dd0314c0f7b2291e5b200ac8c7c3b92560405160405180910390a45050565b600061127c82611144565b6112bb576040517f08c379a00000000000000000000000000000000000000000000000000000000081526004016112b290612bb3565b60405180910390fd5b60006112c683610a1c565b90508073ffffffffffffffffffffffffffffffffffffffff168473ffffffffffffffffffffffffffffffffffffffff16148061130857506113078185610f4e565b5b8061134657508373ffffffffffffffffffffffffffffffffffffffff1661132e8461062f565b73ffffffffffffffffffffffffffffffffffffffff16145b91505092915050565b8273ffffffffffffffffffffffffffffffffffffffff1661136f82610a1c565b73ffffffffffffffffffffffffffffffffffffffff16146113c5576040517f08c379a00000000000000000000000000000000000000000000000000000000081526004016113bc90612b33565b60405180910390fd5b600073ffffffffffffffffffffffffffffffffffffffff168273ffffffffffffffffffffffffffffffffffffffff161415611435576040517f08c379a000000000000000000000000000000000000000000000000000000000815260040161142c90612b73565b60405180910390fd5b611440838383611b75565b61144b6000826111b8565b6001600360008573ffffffffffffffffffffffffffffffffffffffff1673ffffffffffffffffffffffffffffffffffffffff168152602001908152602001600020600082825461149b9190612f69565b925050819055506001600360008473ffffffffffffffffffffffffffffffffffffffff1673ffffffffffffffffffffffffffffffffffffffff16815260200190815260200160002060008282546114f29190612ee2565b92505081905550816002600083815260200190815260200160002060006101000a81548173ffffffffffffffffffffffffffffffffffffffff021916908373ffffffffffffffffffffffffffffffffffffffff160217905550808273ffffffffffffffffffffffffffffffffffffffff168473ffffffffffffffffffffffffffffffffffffffff167fddf252ad1be2c89b69c2b068fc378daa952ba7f163c4a11628f55a4df523b3ef60405160405180910390a46115b1838383611b7a565b505050565b6000600760009054906101000a900473ffffffffffffffffffffffffffffffffffffffff16905081600760006101000a81548173ffffffffffffffffffffffffffffffffffffffff021916908373ffffffffffffffffffffffffffffffffffffffff1602179055508173ffffffffffffffffffffffffffffffffffffffff168173ffffffffffffffffffffffffffffffffffffffff167f8be0079c531659141344cd1fd0a4f28419497f9722a3daafe3b4186f6b6457e060405160405180910390a35050565b8173ffffffffffffffffffffffffffffffffffffffff168373ffffffffffffffffffffffffffffffffffffffff1614156116eb576040517f08c379a00000000000000000000000000000000000000000000000000000000081526004016116e290612b93565b60405180910390fd5b80600560008573ffffffffffffffffffffffffffffffffffffffff1673ffffffffffffffffffffffffffffffffffffffff16815260200190815260200160002060008473ffffffffffffffffffffffffffffffffffffffff1673ffffffffffffffffffffffffffffffffffffffff16815260200190815260200160002060006101000a81548160ff0219169083151502179055508173ffffffffffffffffffffffffffffffffffffffff168373ffffffffffffffffffffffffffffffffffffffff167f17307eab39ab6107e8899845ad3d59bd9653f200f220920489ca2b5937696c31836040516117dc9190612ab6565b60405180910390a3505050565b6117f484848461134f565b61180084848484611b7f565b61183f576040517f08c379a000000000000000000000000000000000000000000000000000000000815260040161183690612af3565b60405180910390fd5b50505050565b606060405180602001604052806000815250905090565b606061186782611144565b6118a6576040517f08c379a000000000000000000000000000000000000000000000000000000000815260040161189d90612cd3565b60405180910390fd5b60006118b0611845565b905060008151116118d057604051806020016040528060008152506118fb565b806118da84611d16565b6040516020016118eb9291906129f4565b6040516020818303038152906040525b915050919050565b6001816000016000828254019250508190555050565b600081600001549050919050565b600073ffffffffffffffffffffffffffffffffffffffff168273ffffffffffffffffffffffffffffffffffffffff161415611997576040517f08c379a000000000000000000000000000000000000000000000000000000000815260040161198e90612c53565b60405180910390fd5b6119a081611144565b156119e0576040517f08c379a00000000000000000000000000000000000000000000000000000000081526004016119d790612b53565b60405180910390fd5b6119ec60008383611b75565b6001600360008473ffffffffffffffffffffffffffffffffffffffff1673ffffffffffffffffffffffffffffffffffffffff1681526020019081526020016000206000828254611a3c9190612ee2565b92505081905550816002600083815260200190815260200160002060006101000a81548173ffffffffffffffffffffffffffffffffffffffff021916908373ffffffffffffffffffffffffffffffffffffffff160217905550808273ffffffffffffffffffffffffffffffffffffffff16600073ffffffffffffffffffffffffffffffffffffffff167fddf252ad1be2c89b69c2b068fc378daa952ba7f163c4a11628f55a4df523b3ef60405160405180910390a4611afd60008383611b7a565b5050565b611b0a82611144565b611b49576040517f08c379a0000000000000000000000000000000000000000000000000000000008152600401611b4090612c33565b60405180910390fd5b80600660008481526020019081526020016000209080519060200190611b70929190611f71565b505050565b505050565b505050565b6000611ba08473ffffffffffffffffffffffffffffffffffffffff16611e77565b15611d09578373ffffffffffffffffffffffffffffffffffffffff1663150b7a02611bc96111b0565b8786866040518563ffffffff1660e01b8152600401611beb9493929190612a33565b602060405180830381600087803b158015611c0557600080fd5b505af1925050508015611c3657506040513d601f19601f82011682018060405250810190611c339190612501565b60015b611cb9573d8060008114611c66576040519150601f19603f3d011682016040523d82523d6000602084013e611c6b565b606091505b50600081511415611cb1576040517f08c379a0000000000000000000000000000000000000000000000000000000008152600401611ca890612af3565b60405180910390fd5b805181602001fd5b63150b7a0260e01b7bffffffffffffffffffffffffffffffffffffffffffffffffffffffff1916817bffffffffffffffffffffffffffffffffffffffffffffffffffffffff191614915050611d0e565b600190505b949350505050565b60606000821415611d5e576040518060400160405280600181526020017f30000000000000000000000000000000000000000000000000000000000000008152509050611e72565b600082905060005b60008214611d90578080611d79906130b6565b915050600a82611d899190612f38565b9150611d66565b60008167ffffffffffffffff811115611dac57611dab6131ec565b5b6040519080825280601f01601f191660200182016040528015611dde5781602001600182028036833780820191505090505b5090505b60008514611e6b57600182611df79190612f69565b9150600a85611e0691906130ff565b6030611e129190612ee2565b60f81b818381518110611e2857611e276131bd565b5b60200101907effffffffffffffffffffffffffffffffffffffffffffffffffffffffffffff1916908160001a905350600a85611e649190612f38565b9450611de2565b8093505050505b919050565b6000808273ffffffffffffffffffffffffffffffffffffffff163b119050919050565b828054828255906000526020600020908101928215611f13579160200282015b82811115611f125782518260006101000a81548173ffffffffffffffffffffffffffffffffffffffff021916908373ffffffffffffffffffffffffffffffffffffffff16021790555091602001919060010190611eba565b5b509050611f209190611ff7565b5090565b828054828255906000526020600020908101928215611f60579160200282015b82811115611f5f578251825591602001919060010190611f44565b5b509050611f6d9190611ff7565b5090565b828054611f7d90613053565b90600052602060002090601f016020900481019282611f9f5760008555611fe6565b82601f10611fb857805160ff1916838001178555611fe6565b82800160010185558215611fe6579182015b82811115611fe5578251825591602001919060010190611fca565b5b509050611ff39190611ff7565b5090565b5b80821115612010576000816000905550600101611ff8565b5090565b600061202761202284612d73565b612d4e565b9050808382526020820190508285602086028201111561204a57612049613220565b5b60005b8581101561207a57816120608882612178565b84526020840193506020830192505060018101905061204d565b5050509392505050565b600061209761209284612d9f565b612d4e565b905080838252602082019050828560208602820111156120ba576120b9613220565b5b60005b858110156120ea57816120d08882612284565b8452602084019350602083019250506001810190506120bd565b5050509392505050565b600061210761210284612dcb565b612d4e565b90508281526020810184848401111561212357612122613225565b5b61212e848285613011565b509392505050565b600061214961214484612dfc565b612d4e565b90508281526020810184848401111561216557612164613225565b5b612170848285613011565b509392505050565b6000813590506121878161373b565b92915050565b600082601f8301126121a2576121a161321b565b5b81356121b2848260208601612014565b91505092915050565b600082601f8301126121d0576121cf61321b565b5b81356121e0848260208601612084565b91505092915050565b6000813590506121f881613752565b92915050565b60008135905061220d81613769565b92915050565b60008151905061222281613769565b92915050565b600082601f83011261223d5761223c61321b565b5b813561224d8482602086016120f4565b91505092915050565b600082601f83011261226b5761226a61321b565b5b813561227b848260208601612136565b91505092915050565b60008135905061229381613780565b92915050565b6000602082840312156122af576122ae61322f565b5b60006122bd84828501612178565b91505092915050565b600080604083850312156122dd576122dc61322f565b5b60006122eb85828601612178565b92505060206122fc85828601612178565b9150509250929050565b60008060006060848603121561231f5761231e61322f565b5b600061232d86828701612178565b935050602061233e86828701612178565b925050604061234f86828701612284565b9150509250925092565b600080600080608085870312156123735761237261322f565b5b600061238187828801612178565b945050602061239287828801612178565b93505060406123a387828801612284565b925050606085013567ffffffffffffffff8111156123c4576123c361322a565b5b6123d087828801612228565b91505092959194509250565b600080604083850312156123f3576123f261322f565b5b600061240185828601612178565b9250506020612412858286016121e9565b9150509250929050565b600080604083850312156124335761243261322f565b5b600061244185828601612178565b925050602061245285828601612284565b9150509250929050565b600080604083850312156124735761247261322f565b5b600083013567ffffffffffffffff8111156124915761249061322a565b5b61249d8582860161218d565b925050602083013567ffffffffffffffff8111156124be576124bd61322a565b5b6124ca858286016121bb565b9150509250929050565b6000602082840312156124ea576124e961322f565b5b60006124f8848285016121fe565b91505092915050565b6000602082840312156125175761251661322f565b5b600061252584828501612213565b91505092915050565b6000602082840312156125445761254361322f565b5b600082013567ffffffffffffffff8111156125625761256161322a565b5b61256e84828501612256565b91505092915050565b60006020828403121561258d5761258c61322f565b5b600061259b84828501612284565b91505092915050565b60006125b083836125d4565b60208301905092915050565b60006125c883836129d6565b60208301905092915050565b6125dd81612f9d565b82525050565b6125ec81612f9d565b82525050565b60006125fd82612e4d565b6126078185612e93565b935061261283612e2d565b8060005b8381101561264357815161262a88826125a4565b975061263583612e79565b925050600181019050612616565b5085935050505092915050565b600061265b82612e58565b6126658185612ea4565b935061267083612e3d565b8060005b838110156126a157815161268888826125bc565b975061269383612e86565b925050600181019050612674565b5085935050505092915050565b6126b781612faf565b82525050565b60006126c882612e63565b6126d28185612eb5565b93506126e2818560208601613020565b6126eb81613234565b840191505092915050565b600061270182612e6e565b61270b8185612ec6565b935061271b818560208601613020565b61272481613234565b840191505092915050565b600061273a82612e6e565b6127448185612ed7565b9350612754818560208601613020565b80840191505092915050565b600061276d603283612ec6565b915061277882613245565b604082019050919050565b6000612790602683612ec6565b915061279b82613294565b604082019050919050565b60006127b3602583612ec6565b91506127be826132e3565b604082019050919050565b60006127d6601c83612ec6565b91506127e182613332565b602082019050919050565b60006127f9602483612ec6565b91506128048261335b565b604082019050919050565b600061281c601983612ec6565b9150612827826133aa565b602082019050919050565b600061283f602c83612ec6565b915061284a826133d3565b604082019050919050565b6000612862603883612ec6565b915061286d82613422565b604082019050919050565b6000612885602a83612ec6565b915061289082613471565b604082019050919050565b60006128a8602983612ec6565b91506128b3826134c0565b604082019050919050565b60006128cb602e83612ec6565b91506128d68261350f565b604082019050919050565b60006128ee602083612ec6565b91506128f98261355e565b602082019050919050565b6000612911603183612ec6565b915061291c82613587565b604082019050919050565b6000612934602c83612ec6565b915061293f826135d6565b604082019050919050565b6000612957602083612ec6565b915061296282613625565b602082019050919050565b600061297a602f83612ec6565b91506129858261364e565b604082019050919050565b600061299d602183612ec6565b91506129a88261369d565b604082019050919050565b60006129c0603183612ec6565b91506129cb826136ec565b604082019050919050565b6129df81613007565b82525050565b6129ee81613007565b82525050565b6000612a00828561272f565b9150612a0c828461272f565b91508190509392505050565b6000602082019050612a2d60008301846125e3565b92915050565b6000608082019050612a4860008301876125e3565b612a5560208301866125e3565b612a6260408301856129e5565b8181036060830152612a7481846126bd565b905095945050505050565b60006040820190508181036000830152612a9981856125f2565b90508181036020830152612aad8184612650565b90509392505050565b6000602082019050612acb60008301846126ae565b92915050565b60006020820190508181036000830152612aeb81846126f6565b905092915050565b60006020820190508181036000830152612b0c81612760565b9050919050565b60006020820190508181036000830152612b2c81612783565b9050919050565b60006020820190508181036000830152612b4c816127a6565b9050919050565b60006020820190508181036000830152612b6c816127c9565b9050919050565b60006020820190508181036000830152612b8c816127ec565b9050919050565b60006020820190508181036000830152612bac8161280f565b9050919050565b60006020820190508181036000830152612bcc81612832565b9050919050565b60006020820190508181036000830152612bec81612855565b9050919050565b60006020820190508181036000830152612c0c81612878565b9050919050565b60006020820190508181036000830152612c2c8161289b565b9050919050565b60006020820190508181036000830152612c4c816128be565b9050919050565b60006020820190508181036000830152612c6c816128e1565b9050919050565b60006020820190508181036000830152612c8c81612904565b9050919050565b60006020820190508181036000830152612cac81612927565b9050919050565b60006020820190508181036000830152612ccc8161294a565b9050919050565b60006020820190508181036000830152612cec8161296d565b9050919050565b60006020820190508181036000830152612d0c81612990565b9050919050565b60006020820190508181036000830152612d2c816129b3565b9050919050565b6000602082019050612d4860008301846129e5565b92915050565b6000612d58612d69565b9050612d648282613085565b919050565b6000604051905090565b600067ffffffffffffffff821115612d8e57612d8d6131ec565b5b602082029050602081019050919050565b600067ffffffffffffffff821115612dba57612db96131ec565b5b602082029050602081019050919050565b600067ffffffffffffffff821115612de657612de56131ec565b5b612def82613234565b9050602081019050919050565b600067ffffffffffffffff821115612e1757612e166131ec565b5b612e2082613234565b9050602081019050919050565b6000819050602082019050919050565b6000819050602082019050919050565b600081519050919050565b600081519050919050565b600081519050919050565b600081519050919050565b6000602082019050919050565b6000602082019050919050565b600082825260208201905092915050565b600082825260208201905092915050565b600082825260208201905092915050565b600082825260208201905092915050565b600081905092915050565b6000612eed82613007565b9150612ef883613007565b9250827fffffffffffffffffffffffffffffffffffffffffffffffffffffffffffffffff03821115612f2d57612f2c613130565b5b828201905092915050565b6000612f4382613007565b9150612f4e83613007565b925082612f5e57612f5d61315f565b5b828204905092915050565b6000612f7482613007565b9150612f7f83613007565b925082821015612f9257612f91613130565b5b828203905092915050565b6000612fa882612fe7565b9050919050565b60008115159050919050565b60007fffffffff0000000000000000000000000000000000000000000000000000000082169050919050565b600073ffffffffffffffffffffffffffffffffffffffff82169050919050565b6000819050919050565b82818337600083830152505050565b60005b8381101561303e578082015181840152602081019050613023565b8381111561304d576000848401525b50505050565b6000600282049050600182168061306b57607f821691505b6020821081141561307f5761307e61318e565b5b50919050565b61308e82613234565b810181811067ffffffffffffffff821117156130ad576130ac6131ec565b5b80604052505050565b60006130c182613007565b91507fffffffffffffffffffffffffffffffffffffffffffffffffffffffffffffffff8214156130f4576130f3613130565b5b600182019050919050565b600061310a82613007565b915061311583613007565b9250826131255761312461315f565b5b828206905092915050565b7f4e487b7100000000000000000000000000000000000000000000000000000000600052601160045260246000fd5b7f4e487b7100000000000000000000000000000000000000000000000000000000600052601260045260246000fd5b7f4e487b7100000000000000000000000000000000000000000000000000000000600052602260045260246000fd5b7f4e487b7100000000000000000000000000000000000000000000000000000000600052603260045260246000fd5b7f4e487b7100000000000000000000000000000000000000000000000000000000600052604160045260246000fd5b600080fd5b600080fd5b600080fd5b600080fd5b600080fd5b6000601f19601f8301169050919050565b7f4552433732313a207472616e7366657220746f206e6f6e20455243373231526560008201527f63656976657220696d706c656d656e7465720000000000000000000000000000602082015250565b7f4f776e61626c653a206e6577206f776e657220697320746865207a65726f206160008201527f6464726573730000000000000000000000000000000000000000000000000000602082015250565b7f4552433732313a207472616e736665722066726f6d20696e636f72726563742060008201527f6f776e6572000000000000000000000000000000000000000000000000000000602082015250565b7f4552433732313a20746f6b656e20616c7265616479206d696e74656400000000600082015250565b7f4552433732313a207472616e7366657220746f20746865207a65726f2061646460008201527f7265737300000000000000000000000000000000000000000000000000000000602082015250565b7f4552433732313a20617070726f766520746f2063616c6c657200000000000000600082015250565b7f4552433732313a206f70657261746f7220717565727920666f72206e6f6e657860008201527f697374656e7420746f6b656e0000000000000000000000000000000000000000602082015250565b7f4552433732313a20617070726f76652063616c6c6572206973206e6f74206f7760008201527f6e6572206e6f7220617070726f76656420666f7220616c6c0000000000000000602082015250565b7f4552433732313a2062616c616e636520717565727920666f7220746865207a6560008201527f726f206164647265737300000000000000000000000000000000000000000000602082015250565b7f4552433732313a206f776e657220717565727920666f72206e6f6e657869737460008201527f656e7420746f6b656e0000000000000000000000000000000000000000000000602082015250565b7f45524337323155524953746f726167653a2055524920736574206f66206e6f6e60008201527f6578697374656e7420746f6b656e000000000000000000000000000000000000602082015250565b7f4552433732313a206d696e7420746f20746865207a65726f2061646472657373600082015250565b7f45524337323155524953746f726167653a2055524920717565727920666f722060008201527f6e6f6e6578697374656e7420746f6b656e000000000000000000000000000000602082015250565b7f4552433732313a20617070726f76656420717565727920666f72206e6f6e657860008201527f697374656e7420746f6b656e0000000000000000000000000000000000000000602082015250565b7f4f776e61626c653a2063616c6c6572206973206e6f7420746865206f776e6572600082015250565b7f4552433732314d657461646174613a2055524920717565727920666f72206e6f60008201527f6e6578697374656e7420746f6b656e0000000000000000000000000000000000602082015250565b7f4552433732313a20617070726f76616c20746f2063757272656e74206f776e6560008201527f7200000000000000000000000000000000000000000000000000000000000000602082015250565b7f4552433732313a207472616e736665722063616c6c6572206973206e6f74206f60008201527f776e6572206e6f7220617070726f766564000000000000000000000000000000602082015250565b61374481612f9d565b811461374f57600080fd5b50565b61375b81612faf565b811461376657600080fd5b50565b61377281612fbb565b811461377d57600080fd5b50565b61378981613007565b811461379457600080fd5b5056fea264697066735822122079412f71a5b149bae396b20965209bfcb4ee56eb427a2ab6499449c8b9ba288864736f6c63430008070033",
  "deployedBytecode": "0x608060405234801561001057600080fd5b50600436106101215760003560e01c8063715018a6116100ad578063c87b56dd11610071578063c87b56dd146102f4578063d85d3d2714610324578063e985e9c514610354578063f2fde38b14610384578063f47fa56d146103a057610121565b8063715018a6146102765780638da5cb5b1461028057806395d89b411461029e578063a22cb465146102bc578063b88d4fde146102d857610121565b8063095ea7b3116100f4578063095ea7b3146101c257806323b872dd146101de57806342842e0e146101fa5780636352211e1461021657806370a082311461024657610121565b806301ffc9a71461012657806304cd783b1461015657806306fdde0314610174578063081812fc14610192575b600080fd5b610140600480360381019061013b9190612027565b6103d0565b60405161014d91906124c8565b60405180910390f35b61015e6104b2565b60405161016b9190612745565b60405180910390f35b61017c6104bc565b60405161018991906124e3565b60405180910390f35b6101ac60048036038101906101a791906120ca565b61054e565b6040516101b99190612461565b60405180910390f35b6101dc60048036038101906101d79190611fe7565b6105d3565b005b6101f860048036038101906101f39190611ed1565b6106eb565b005b610214600480360381019061020f9190611ed1565b61074b565b005b610230600480360381019061022b91906120ca565b61076b565b60405161023d9190612461565b60405180910390f35b610260600480360381019061025b9190611e64565b61081d565b60405161026d9190612745565b60405180910390f35b61027e6108d5565b005b61028861095d565b6040516102959190612461565b60405180910390f35b6102a6610987565b6040516102b391906124e3565b60405180910390f35b6102d660048036038101906102d19190611fa7565b610a19565b005b6102f260048036038101906102ed9190611f24565b610a2f565b005b61030e600480360381019061030991906120ca565b610a91565b60405161031b91906124e3565b60405180910390f35b61033e60048036038101906103399190612081565b610be3565b60405161034b9190612745565b60405180910390f35b61036e60048036038101906103699190611e91565b610c9d565b60405161037b91906124c8565b60405180910390f35b61039e60048036038101906103999190611e64565b610d31565b005b6103ba60048036038101906103b591906120ca565b610e29565b6040516103c79190612745565b60405180910390f35b60007f80ac58cd000000000000000000000000000000000000000000000000000000007bffffffffffffffffffffffffffffffffffffffffffffffffffffffff1916827bffffffffffffffffffffffffffffffffffffffffffffffffffffffff1916148061049b57507f5b5e139f000000000000000000000000000000000000000000000000000000007bffffffffffffffffffffffffffffffffffffffffffffffffffffffff1916827bffffffffffffffffffffffffffffffffffffffffffffffffffffffff1916145b806104ab57506104aa82610eb8565b5b9050919050565b6000600854905090565b6060600080546104cb9061299b565b80601f01602080910402602001604051908101604052809291908181526020018280546104f79061299b565b80156105445780601f1061051957610100808354040283529160200191610544565b820191906000526020600020905b81548152906001019060200180831161052757829003601f168201915b5050505050905090565b600061055982610f22565b610598576040517f08c379a000000000000000000000000000000000000000000000000000000000815260040161058f906126a5565b60405180910390fd5b6004600083815260200190815260200160002060009054906101000a900473ffffffffffffffffffffffffffffffffffffffff169050919050565b60006105de8261076b565b90508073ffffffffffffffffffffffffffffffffffffffff168373ffffffffffffffffffffffffffffffffffffffff16141561064f576040517f08c379a000000000000000000000000000000000000000000000000000000000815260040161064690612705565b60405180910390fd5b8073ffffffffffffffffffffffffffffffffffffffff1661066e610f8e565b73ffffffffffffffffffffffffffffffffffffffff16148061069d575061069c81610697610f8e565b610c9d565b5b6106dc576040517f08c379a00000000000000000000000000000000000000000000000000000000081526004016106d3906125e5565b60405180910390fd5b6106e68383610f96565b505050565b6106fc6106f6610f8e565b8261104f565b61073b576040517f08c379a000000000000000000000000000000000000000000000000000000000815260040161073290612725565b60405180910390fd5b61074683838361112d565b505050565b61076683838360405180602001604052806000815250610a2f565b505050565b6000806002600084815260200190815260200160002060009054906101000a900473ffffffffffffffffffffffffffffffffffffffff169050600073ffffffffffffffffffffffffffffffffffffffff168173ffffffffffffffffffffffffffffffffffffffff161415610814576040517f08c379a000000000000000000000000000000000000000000000000000000000815260040161080b90612625565b60405180910390fd5b80915050919050565b60008073ffffffffffffffffffffffffffffffffffffffff168273ffffffffffffffffffffffffffffffffffffffff16141561088e576040517f08c379a000000000000000000000000000000000000000000000000000000000815260040161088590612605565b60405180910390fd5b600360008373ffffffffffffffffffffffffffffffffffffffff1673ffffffffffffffffffffffffffffffffffffffff168152602001908152602001600020549050919050565b6108dd610f8e565b73ffffffffffffffffffffffffffffffffffffffff166108fb61095d565b73ffffffffffffffffffffffffffffffffffffffff1614610951576040517f08c379a0000000000000000000000000000000000000000000000000000000008152600401610948906126c5565b60405180910390fd5b61095b6000611394565b565b6000600760009054906101000a900473ffffffffffffffffffffffffffffffffffffffff16905090565b6060600180546109969061299b565b80601f01602080910402602001604051908101604052809291908181526020018280546109c29061299b565b8015610a0f5780601f106109e457610100808354040283529160200191610a0f565b820191906000526020600020905b8154815290600101906020018083116109f257829003601f168201915b5050505050905090565b610a2b610a24610f8e565b838361145a565b5050565b610a40610a3a610f8e565b8361104f565b610a7f576040517f08c379a0000000000000000000000000000000000000000000000000000000008152600401610a7690612725565b60405180910390fd5b610a8b848484846115c7565b50505050565b6060610a9c82610f22565b610adb576040517f08c379a0000000000000000000000000000000000000000000000000000000008152600401610ad290612685565b60405180910390fd5b6000600660008481526020019081526020016000208054610afb9061299b565b80601f0160208091040260200160405190810160405280929190818152602001828054610b279061299b565b8015610b745780601f10610b4957610100808354040283529160200191610b74565b820191906000526020600020905b815481529060010190602001808311610b5757829003601f168201915b505050505090506000610b85611623565b9050600081511415610b9b578192505050610bde565b600082511115610bd0578082604051602001610bb892919061243d565b60405160208183030381529060405292505050610bde565b610bd98461163a565b925050505b919050565b6000610bed610f8e565b73ffffffffffffffffffffffffffffffffffffffff16610c0b61095d565b73ffffffffffffffffffffffffffffffffffffffff1614610c61576040517f08c379a0000000000000000000000000000000000000000000000000000000008152600401610c58906126c5565b60405180910390fd5b610c6b60096116e1565b6000610c7760096116f7565b9050610c8a610c84610f8e565b82611705565b610c9481846118df565b80915050919050565b6000600560008473ffffffffffffffffffffffffffffffffffffffff1673ffffffffffffffffffffffffffffffffffffffff16815260200190815260200160002060008373ffffffffffffffffffffffffffffffffffffffff1673ffffffffffffffffffffffffffffffffffffffff16815260200190815260200160002060009054906101000a900460ff16905092915050565b610d39610f8e565b73ffffffffffffffffffffffffffffffffffffffff16610d5761095d565b73ffffffffffffffffffffffffffffffffffffffff1614610dad576040517f08c379a0000000000000000000000000000000000000000000000000000000008152600401610da4906126c5565b60405180910390fd5b600073ffffffffffffffffffffffffffffffffffffffff168173ffffffffffffffffffffffffffffffffffffffff161415610e1d576040517f08c379a0000000000000000000000000000000000000000000000000000000008152600401610e1490612525565b60405180910390fd5b610e2681611394565b50565b6000610e33610f8e565b73ffffffffffffffffffffffffffffffffffffffff16610e5161095d565b73ffffffffffffffffffffffffffffffffffffffff1614610ea7576040517f08c379a0000000000000000000000000000000000000000000000000000000008152600401610e9e906126c5565b60405180910390fd5b816008819055506008549050919050565b60007f01ffc9a7000000000000000000000000000000000000000000000000000000007bffffffffffffffffffffffffffffffffffffffffffffffffffffffff1916827bffffffffffffffffffffffffffffffffffffffffffffffffffffffff1916149050919050565b60008073ffffffffffffffffffffffffffffffffffffffff166002600084815260200190815260200160002060009054906101000a900473ffffffffffffffffffffffffffffffffffffffff1673ffffffffffffffffffffffffffffffffffffffff1614159050919050565b600033905090565b816004600083815260200190815260200160002060006101000a81548173ffffffffffffffffffffffffffffffffffffffff021916908373ffffffffffffffffffffffffffffffffffffffff160217905550808273ffffffffffffffffffffffffffffffffffffffff166110098361076b565b73ffffffffffffffffffffffffffffffffffffffff167f8c5be1e5ebec7d5bd14f71427d1e84f3dd0314c0f7b2291e5b200ac8c7c3b92560405160405180910390a45050565b600061105a82610f22565b611099576040517f08c379a0000000000000000000000000000000000000000000000000000000008152600401611090906125c5565b60405180910390fd5b60006110a48361076b565b90508073ffffffffffffffffffffffffffffffffffffffff168473ffffffffffffffffffffffffffffffffffffffff16148061111357508373ffffffffffffffffffffffffffffffffffffffff166110fb8461054e565b73ffffffffffffffffffffffffffffffffffffffff16145b8061112457506111238185610c9d565b5b91505092915050565b8273ffffffffffffffffffffffffffffffffffffffff1661114d8261076b565b73ffffffffffffffffffffffffffffffffffffffff16146111a3576040517f08c379a000000000000000000000000000000000000000000000000000000000815260040161119a90612545565b60405180910390fd5b600073ffffffffffffffffffffffffffffffffffffffff168273ffffffffffffffffffffffffffffffffffffffff161415611213576040517f08c379a000000000000000000000000000000000000000000000000000000000815260040161120a90612585565b60405180910390fd5b61121e838383611953565b611229600082610f96565b6001600360008573ffffffffffffffffffffffffffffffffffffffff1673ffffffffffffffffffffffffffffffffffffffff168152602001908152602001600020600082825461127991906128b1565b925050819055506001600360008473ffffffffffffffffffffffffffffffffffffffff1673ffffffffffffffffffffffffffffffffffffffff16815260200190815260200160002060008282546112d0919061282a565b92505081905550816002600083815260200190815260200160002060006101000a81548173ffffffffffffffffffffffffffffffffffffffff021916908373ffffffffffffffffffffffffffffffffffffffff160217905550808273ffffffffffffffffffffffffffffffffffffffff168473ffffffffffffffffffffffffffffffffffffffff167fddf252ad1be2c89b69c2b068fc378daa952ba7f163c4a11628f55a4df523b3ef60405160405180910390a461138f838383611958565b505050565b6000600760009054906101000a900473ffffffffffffffffffffffffffffffffffffffff16905081600760006101000a81548173ffffffffffffffffffffffffffffffffffffffff021916908373ffffffffffffffffffffffffffffffffffffffff1602179055508173ffffffffffffffffffffffffffffffffffffffff168173ffffffffffffffffffffffffffffffffffffffff167f8be0079c531659141344cd1fd0a4f28419497f9722a3daafe3b4186f6b6457e060405160405180910390a35050565b8173ffffffffffffffffffffffffffffffffffffffff168373ffffffffffffffffffffffffffffffffffffffff1614156114c9576040517f08c379a00000000000000000000000000000000000000000000000000000000081526004016114c0906125a5565b60405180910390fd5b80600560008573ffffffffffffffffffffffffffffffffffffffff1673ffffffffffffffffffffffffffffffffffffffff16815260200190815260200160002060008473ffffffffffffffffffffffffffffffffffffffff1673ffffffffffffffffffffffffffffffffffffffff16815260200190815260200160002060006101000a81548160ff0219169083151502179055508173ffffffffffffffffffffffffffffffffffffffff168373ffffffffffffffffffffffffffffffffffffffff167f17307eab39ab6107e8899845ad3d59bd9653f200f220920489ca2b5937696c31836040516115ba91906124c8565b60405180910390a3505050565b6115d284848461112d565b6115de8484848461195d565b61161d576040517f08c379a000000000000000000000000000000000000000000000000000000000815260040161161490612505565b60405180910390fd5b50505050565b606060405180602001604052806000815250905090565b606061164582610f22565b611684576040517f08c379a000000000000000000000000000000000000000000000000000000000815260040161167b906126e5565b60405180910390fd5b600061168e611623565b905060008151116116ae57604051806020016040528060008152506116d9565b806116b884611af4565b6040516020016116c992919061243d565b6040516020818303038152906040525b915050919050565b6001816000016000828254019250508190555050565b600081600001549050919050565b600073ffffffffffffffffffffffffffffffffffffffff168273ffffffffffffffffffffffffffffffffffffffff161415611775576040517f08c379a000000000000000000000000000000000000000000000000000000000815260040161176c90612665565b60405180910390fd5b61177e81610f22565b156117be576040517f08c379a00000000000000000000000000000000000000000000000000000000081526004016117b590612565565b60405180910390fd5b6117ca60008383611953565b6001600360008473ffffffffffffffffffffffffffffffffffffffff1673ffffffffffffffffffffffffffffffffffffffff168152602001908152602001600020600082825461181a919061282a565b92505081905550816002600083815260200190815260200160002060006101000a81548173ffffffffffffffffffffffffffffffffffffffff021916908373ffffffffffffffffffffffffffffffffffffffff160217905550808273ffffffffffffffffffffffffffffffffffffffff16600073ffffffffffffffffffffffffffffffffffffffff167fddf252ad1be2c89b69c2b068fc378daa952ba7f163c4a11628f55a4df523b3ef60405160405180910390a46118db60008383611958565b5050565b6118e882610f22565b611927576040517f08c379a000000000000000000000000000000000000000000000000000000000815260040161191e90612645565b60405180910390fd5b8060066000848152602001908152602001600020908051906020019061194e929190611c78565b505050565b505050565b505050565b600061197e8473ffffffffffffffffffffffffffffffffffffffff16611c55565b15611ae7578373ffffffffffffffffffffffffffffffffffffffff1663150b7a026119a7610f8e565b8786866040518563ffffffff1660e01b81526004016119c9949392919061247c565b602060405180830381600087803b1580156119e357600080fd5b505af1925050508015611a1457506040513d601f19601f82011682018060405250810190611a119190612054565b60015b611a97573d8060008114611a44576040519150601f19603f3d011682016040523d82523d6000602084013e611a49565b606091505b50600081511415611a8f576040517f08c379a0000000000000000000000000000000000000000000000000000000008152600401611a8690612505565b60405180910390fd5b805181602001fd5b63150b7a0260e01b7bffffffffffffffffffffffffffffffffffffffffffffffffffffffff1916817bffffffffffffffffffffffffffffffffffffffffffffffffffffffff191614915050611aec565b600190505b949350505050565b60606000821415611b3c576040518060400160405280600181526020017f30000000000000000000000000000000000000000000000000000000000000008152509050611c50565b600082905060005b60008214611b6e578080611b57906129fe565b915050600a82611b679190612880565b9150611b44565b60008167ffffffffffffffff811115611b8a57611b89612b34565b5b6040519080825280601f01601f191660200182016040528015611bbc5781602001600182028036833780820191505090505b5090505b60008514611c4957600182611bd591906128b1565b9150600a85611be49190612a47565b6030611bf0919061282a565b60f81b818381518110611c0657611c05612b05565b5b60200101907effffffffffffffffffffffffffffffffffffffffffffffffffffffffffffff1916908160001a905350600a85611c429190612880565b9450611bc0565b8093505050505b919050565b6000808273ffffffffffffffffffffffffffffffffffffffff163b119050919050565b828054611c849061299b565b90600052602060002090601f016020900481019282611ca65760008555611ced565b82601f10611cbf57805160ff1916838001178555611ced565b82800160010185558215611ced579182015b82811115611cec578251825591602001919060010190611cd1565b5b509050611cfa9190611cfe565b5090565b5b80821115611d17576000816000905550600101611cff565b5090565b6000611d2e611d2984612785565b612760565b905082815260208101848484011115611d4a57611d49612b68565b5b611d55848285612959565b509392505050565b6000611d70611d6b846127b6565b612760565b905082815260208101848484011115611d8c57611d8b612b68565b5b611d97848285612959565b509392505050565b600081359050611dae8161307e565b92915050565b600081359050611dc381613095565b92915050565b600081359050611dd8816130ac565b92915050565b600081519050611ded816130ac565b92915050565b600082601f830112611e0857611e07612b63565b5b8135611e18848260208601611d1b565b91505092915050565b600082601f830112611e3657611e35612b63565b5b8135611e46848260208601611d5d565b91505092915050565b600081359050611e5e816130c3565b92915050565b600060208284031215611e7a57611e79612b72565b5b6000611e8884828501611d9f565b91505092915050565b60008060408385031215611ea857611ea7612b72565b5b6000611eb685828601611d9f565b9250506020611ec785828601611d9f565b9150509250929050565b600080600060608486031215611eea57611ee9612b72565b5b6000611ef886828701611d9f565b9350506020611f0986828701611d9f565b9250506040611f1a86828701611e4f565b9150509250925092565b60008060008060808587031215611f3e57611f3d612b72565b5b6000611f4c87828801611d9f565b9450506020611f5d87828801611d9f565b9350506040611f6e87828801611e4f565b925050606085013567ffffffffffffffff811115611f8f57611f8e612b6d565b5b611f9b87828801611df3565b91505092959194509250565b60008060408385031215611fbe57611fbd612b72565b5b6000611fcc85828601611d9f565b9250506020611fdd85828601611db4565b9150509250929050565b60008060408385031215611ffe57611ffd612b72565b5b600061200c85828601611d9f565b925050602061201d85828601611e4f565b9150509250929050565b60006020828403121561203d5761203c612b72565b5b600061204b84828501611dc9565b91505092915050565b60006020828403121561206a57612069612b72565b5b600061207884828501611dde565b91505092915050565b60006020828403121561209757612096612b72565b5b600082013567ffffffffffffffff8111156120b5576120b4612b6d565b5b6120c184828501611e21565b91505092915050565b6000602082840312156120e0576120df612b72565b5b60006120ee84828501611e4f565b91505092915050565b612100816128e5565b82525050565b61210f816128f7565b82525050565b6000612120826127e7565b61212a81856127fd565b935061213a818560208601612968565b61214381612b77565b840191505092915050565b6000612159826127f2565b612163818561280e565b9350612173818560208601612968565b61217c81612b77565b840191505092915050565b6000612192826127f2565b61219c818561281f565b93506121ac818560208601612968565b80840191505092915050565b60006121c560328361280e565b91506121d082612b88565b604082019050919050565b60006121e860268361280e565b91506121f382612bd7565b604082019050919050565b600061220b60258361280e565b915061221682612c26565b604082019050919050565b600061222e601c8361280e565b915061223982612c75565b602082019050919050565b600061225160248361280e565b915061225c82612c9e565b604082019050919050565b600061227460198361280e565b915061227f82612ced565b602082019050919050565b6000612297602c8361280e565b91506122a282612d16565b604082019050919050565b60006122ba60388361280e565b91506122c582612d65565b604082019050919050565b60006122dd602a8361280e565b91506122e882612db4565b604082019050919050565b600061230060298361280e565b915061230b82612e03565b604082019050919050565b6000612323602e8361280e565b915061232e82612e52565b604082019050919050565b600061234660208361280e565b915061235182612ea1565b602082019050919050565b600061236960318361280e565b915061237482612eca565b604082019050919050565b600061238c602c8361280e565b915061239782612f19565b604082019050919050565b60006123af60208361280e565b91506123ba82612f68565b602082019050919050565b60006123d2602f8361280e565b91506123dd82612f91565b604082019050919050565b60006123f560218361280e565b915061240082612fe0565b604082019050919050565b600061241860318361280e565b91506124238261302f565b604082019050919050565b6124378161294f565b82525050565b60006124498285612187565b91506124558284612187565b91508190509392505050565b600060208201905061247660008301846120f7565b92915050565b600060808201905061249160008301876120f7565b61249e60208301866120f7565b6124ab604083018561242e565b81810360608301526124bd8184612115565b905095945050505050565b60006020820190506124dd6000830184612106565b92915050565b600060208201905081810360008301526124fd818461214e565b905092915050565b6000602082019050818103600083015261251e816121b8565b9050919050565b6000602082019050818103600083015261253e816121db565b9050919050565b6000602082019050818103600083015261255e816121fe565b9050919050565b6000602082019050818103600083015261257e81612221565b9050919050565b6000602082019050818103600083015261259e81612244565b9050919050565b600060208201905081810360008301526125be81612267565b9050919050565b600060208201905081810360008301526125de8161228a565b9050919050565b600060208201905081810360008301526125fe816122ad565b9050919050565b6000602082019050818103600083015261261e816122d0565b9050919050565b6000602082019050818103600083015261263e816122f3565b9050919050565b6000602082019050818103600083015261265e81612316565b9050919050565b6000602082019050818103600083015261267e81612339565b9050919050565b6000602082019050818103600083015261269e8161235c565b9050919050565b600060208201905081810360008301526126be8161237f565b9050919050565b600060208201905081810360008301526126de816123a2565b9050919050565b600060208201905081810360008301526126fe816123c5565b9050919050565b6000602082019050818103600083015261271e816123e8565b9050919050565b6000602082019050818103600083015261273e8161240b565b9050919050565b600060208201905061275a600083018461242e565b92915050565b600061276a61277b565b905061277682826129cd565b919050565b6000604051905090565b600067ffffffffffffffff8211156127a05761279f612b34565b5b6127a982612b77565b9050602081019050919050565b600067ffffffffffffffff8211156127d1576127d0612b34565b5b6127da82612b77565b9050602081019050919050565b600081519050919050565b600081519050919050565b600082825260208201905092915050565b600082825260208201905092915050565b600081905092915050565b60006128358261294f565b91506128408361294f565b9250827fffffffffffffffffffffffffffffffffffffffffffffffffffffffffffffffff0382111561287557612874612a78565b5b828201905092915050565b600061288b8261294f565b91506128968361294f565b9250826128a6576128a5612aa7565b5b828204905092915050565b60006128bc8261294f565b91506128c78361294f565b9250828210156128da576128d9612a78565b5b828203905092915050565b60006128f08261292f565b9050919050565b60008115159050919050565b60007fffffffff0000000000000000000000000000000000000000000000000000000082169050919050565b600073ffffffffffffffffffffffffffffffffffffffff82169050919050565b6000819050919050565b82818337600083830152505050565b60005b8381101561298657808201518184015260208101905061296b565b83811115612995576000848401525b50505050565b600060028204905060018216806129b357607f821691505b602082108114156129c7576129c6612ad6565b5b50919050565b6129d682612b77565b810181811067ffffffffffffffff821117156129f5576129f4612b34565b5b80604052505050565b6000612a098261294f565b91507fffffffffffffffffffffffffffffffffffffffffffffffffffffffffffffffff821415612a3c57612a3b612a78565b5b600182019050919050565b6000612a528261294f565b9150612a5d8361294f565b925082612a6d57612a6c612aa7565b5b828206905092915050565b7f4e487b7100000000000000000000000000000000000000000000000000000000600052601160045260246000fd5b7f4e487b7100000000000000000000000000000000000000000000000000000000600052601260045260246000fd5b7f4e487b7100000000000000000000000000000000000000000000000000000000600052602260045260246000fd5b7f4e487b7100000000000000000000000000000000000000000000000000000000600052603260045260246000fd5b7f4e487b7100000000000000000000000000000000000000000000000000000000600052604160045260246000fd5b600080fd5b600080fd5b600080fd5b600080fd5b6000601f19601f8301169050919050565b7f4552433732313a207472616e7366657220746f206e6f6e20455243373231526560008201527f63656976657220696d706c656d656e7465720000000000000000000000000000602082015250565b7f4f776e61626c653a206e6577206f776e657220697320746865207a65726f206160008201527f6464726573730000000000000000000000000000000000000000000000000000602082015250565b7f4552433732313a207472616e736665722066726f6d20696e636f72726563742060008201527f6f776e6572000000000000000000000000000000000000000000000000000000602082015250565b7f4552433732313a20746f6b656e20616c7265616479206d696e74656400000000600082015250565b7f4552433732313a207472616e7366657220746f20746865207a65726f2061646460008201527f7265737300000000000000000000000000000000000000000000000000000000602082015250565b7f4552433732313a20617070726f766520746f2063616c6c657200000000000000600082015250565b7f4552433732313a206f70657261746f7220717565727920666f72206e6f6e657860008201527f697374656e7420746f6b656e0000000000000000000000000000000000000000602082015250565b7f4552433732313a20617070726f76652063616c6c6572206973206e6f74206f7760008201527f6e6572206e6f7220617070726f76656420666f7220616c6c0000000000000000602082015250565b7f4552433732313a2062616c616e636520717565727920666f7220746865207a6560008201527f726f206164647265737300000000000000000000000000000000000000000000602082015250565b7f4552433732313a206f776e657220717565727920666f72206e6f6e657869737460008201527f656e7420746f6b656e0000000000000000000000000000000000000000000000602082015250565b7f45524337323155524953746f726167653a2055524920736574206f66206e6f6e60008201527f6578697374656e7420746f6b656e000000000000000000000000000000000000602082015250565b7f4552433732313a206d696e7420746f20746865207a65726f2061646472657373600082015250565b7f45524337323155524953746f726167653a2055524920717565727920666f722060008201527f6e6f6e6578697374656e7420746f6b656e000000000000000000000000000000602082015250565b7f4552433732313a20617070726f76656420717565727920666f72206e6f6e657860008201527f697374656e7420746f6b656e0000000000000000000000000000000000000000602082015250565b7f4f776e61626c653a2063616c6c6572206973206e6f7420746865206f776e6572600082015250565b7f4552433732314d657461646174613a2055524920717565727920666f72206e6f60008201527f6e6578697374656e7420746f6b656e0000000000000000000000000000000000602082015250565b7f4552433732313a20617070726f76616c20746f2063757272656e74206f776e6560008201527f7200000000000000000000000000000000000000000000000000000000000000602082015250565b7f4552433732313a207472616e736665722063616c6c6572206973206e6f74206f60008201527f776e6572206e6f7220617070726f766564000000000000000000000000000000602082015250565b613087816128e5565b811461309257600080fd5b50565b61309e816128f7565b81146130a957600080fd5b50565b6130b581612903565b81146130c057600080fd5b50565b6130cc8161294f565b81146130d757600080fd5b5056fea264697066735822122030f587fd12d0ebbbe259142f4e774da606dd05a6fb95189dede845e94337ffd164736f6c63430008070033",
  "immutableReferences": {},
  "source": "// SPDX-License-Identifier: MIT\r\npragma solidity ^0.8.5;\r\npragma experimental ABIEncoderV2;\r\nimport \"@openzeppelin/contracts/token/ERC721/extensions/ERC721URIStorage.sol\";\r\nimport \"@openzeppelin/contracts/access/Ownable.sol\";\r\nimport \"@openzeppelin/contracts/utils/Counters.sol\";\r\n\r\ncontract Collectibles is ERC721URIStorage, Ownable  {\r\n    using Counters for Counters.Counter;\r\n\r\n    uint256 resalePercentage;\r\n\r\n    Counters.Counter private _tokenIds;\r\n\r\n    constructor (string memory name,string memory symbol, uint256 _resalePercentage) ERC721(name,symbol){ \r\n        setResalePercentage(_resalePercentage);\r\n    }\r\n\r\n    function mint(string memory URI) public onlyOwner returns(uint256){\r\n        _tokenIds.increment();\r\n        uint256 newItemId = _tokenIds.current();\r\n        _mint(_msgSender(), newItemId);\r\n        _setTokenURI(newItemId, URI);\r\n        return newItemId;\r\n    }\r\n\r\n    function setResalePercentage(uint256 _resalePercentage) public onlyOwner returns(uint256){\r\n        resalePercentage = _resalePercentage;\r\n        return resalePercentage;\r\n    }\r\n\r\n    function getResalePercentage() public view returns(uint256){\r\n        return resalePercentage;\r\n    }\r\n}",
  "sourcePath": "D:\\avocado\\persea_ipfs\\persea\\projects\\smart_contracts\\artcrypted\\contracts\\Collectibles.sol",
  "compiler": {
    "name": "solc",
    "version": "0.8.7+commit.e28d00a7.Emscripten.clang"
  },
  "schemaVersion": "3.4.5",
  "updatedAt": "2022-05-09T15:43:22.410Z",
  "devdoc": {
    "kind": "dev",
    "methods": {
      "approve(address,uint256)": {
        "details": "See {IERC721-approve}."
      },
      "balanceOf(address)": {
        "details": "See {IERC721-balanceOf}."
      },
      "getApproved(uint256)": {
        "details": "See {IERC721-getApproved}."
      },
      "isApprovedForAll(address,address)": {
        "details": "See {IERC721-isApprovedForAll}."
      },
      "name()": {
        "details": "See {IERC721Metadata-name}."
      },
      "owner()": {
        "details": "Returns the address of the current owner."
      },
      "ownerOf(uint256)": {
        "details": "See {IERC721-ownerOf}."
      },
      "renounceOwnership()": {
        "details": "Leaves the contract without owner. It will not be possible to call `onlyOwner` functions anymore. Can only be called by the current owner. NOTE: Renouncing ownership will leave the contract without an owner, thereby removing any functionality that is only available to the owner."
      },
      "safeTransferFrom(address,address,uint256)": {
        "details": "See {IERC721-safeTransferFrom}."
      },
      "safeTransferFrom(address,address,uint256,bytes)": {
        "details": "See {IERC721-safeTransferFrom}."
      },
      "setApprovalForAll(address,bool)": {
        "details": "See {IERC721-setApprovalForAll}."
      },
      "supportsInterface(bytes4)": {
        "details": "See {IERC165-supportsInterface}."
      },
      "symbol()": {
        "details": "See {IERC721Metadata-symbol}."
      },
      "tokenURI(uint256)": {
        "details": "See {IERC721Metadata-tokenURI}."
      },
      "transferFrom(address,address,uint256)": {
        "details": "See {IERC721-transferFrom}."
      },
      "transferOwnership(address)": {
        "details": "Transfers ownership of the contract to a new account (`newOwner`). Can only be called by the current owner."
      }
    },
    "version": 1
  },
  "userdoc": {
    "kind": "user",
    "methods": {},
    "version": 1
  }
}