{
  "contractName": "ProteinaLabCollection",
  "abi": [
    {
      "inputs": [
        {
          "internalType": "string",
          "name": "_folderURI",
          "type": "string"
        },
        {
          "internalType": "uint256",
          "name": "_price",
          "type": "uint256"
        }
      ],
      "stateMutability": "nonpayable",
      "type": "constructor"
    },
    {
      "anonymous": false,
      "inputs": [
        {
          "indexed": true,
          "internalType": "address",
          "name": "owner",
          "type": "address"
        },
        {
          "indexed": true,
          "internalType": "address",
          "name": "approved",
          "type": "address"
        },
        {
          "indexed": true,
          "internalType": "uint256",
          "name": "tokenId",
          "type": "uint256"
        }
      ],
      "name": "Approval",
      "type": "event"
    },
    {
      "anonymous": false,
      "inputs": [
        {
          "indexed": true,
          "internalType": "address",
          "name": "owner",
          "type": "address"
        },
        {
          "indexed": true,
          "internalType": "address",
          "name": "operator",
          "type": "address"
        },
        {
          "indexed": false,
          "internalType": "bool",
          "name": "approved",
          "type": "bool"
        }
      ],
      "name": "ApprovalForAll",
      "type": "event"
    },
    {
      "anonymous": false,
      "inputs": [
        {
          "indexed": true,
          "internalType": "address",
          "name": "from",
          "type": "address"
        },
        {
          "indexed": true,
          "internalType": "address",
          "name": "to",
          "type": "address"
        },
        {
          "indexed": true,
          "internalType": "uint256",
          "name": "tokenId",
          "type": "uint256"
        }
      ],
      "name": "Transfer",
      "type": "event"
    },
    {
      "inputs": [
        {
          "internalType": "uint256",
          "name": "",
          "type": "uint256"
        }
      ],
      "name": "_listTokenIds",
      "outputs": [
        {
          "internalType": "uint256",
          "name": "",
          "type": "uint256"
        }
      ],
      "stateMutability": "view",
      "type": "function"
    },
    {
      "inputs": [
        {
          "internalType": "address",
          "name": "to",
          "type": "address"
        },
        {
          "internalType": "uint256",
          "name": "tokenId",
          "type": "uint256"
        }
      ],
      "name": "approve",
      "outputs": [],
      "stateMutability": "nonpayable",
      "type": "function"
    },
    {
      "inputs": [
        {
          "internalType": "address",
          "name": "owner",
          "type": "address"
        }
      ],
      "name": "balanceOf",
      "outputs": [
        {
          "internalType": "uint256",
          "name": "",
          "type": "uint256"
        }
      ],
      "stateMutability": "view",
      "type": "function"
    },
    {
      "inputs": [
        {
          "internalType": "uint256",
          "name": "tokenId",
          "type": "uint256"
        }
      ],
      "name": "getApproved",
      "outputs": [
        {
          "internalType": "address",
          "name": "",
          "type": "address"
        }
      ],
      "stateMutability": "view",
      "type": "function"
    },
    {
      "inputs": [
        {
          "internalType": "address",
          "name": "owner",
          "type": "address"
        },
        {
          "internalType": "address",
          "name": "operator",
          "type": "address"
        }
      ],
      "name": "isApprovedForAll",
      "outputs": [
        {
          "internalType": "bool",
          "name": "",
          "type": "bool"
        }
      ],
      "stateMutability": "view",
      "type": "function"
    },
    {
      "inputs": [],
      "name": "name",
      "outputs": [
        {
          "internalType": "string",
          "name": "",
          "type": "string"
        }
      ],
      "stateMutability": "view",
      "type": "function"
    },
    {
      "inputs": [],
      "name": "owner",
      "outputs": [
        {
          "internalType": "address",
          "name": "",
          "type": "address"
        }
      ],
      "stateMutability": "view",
      "type": "function"
    },
    {
      "inputs": [
        {
          "internalType": "uint256",
          "name": "tokenId",
          "type": "uint256"
        }
      ],
      "name": "ownerOf",
      "outputs": [
        {
          "internalType": "address",
          "name": "",
          "type": "address"
        }
      ],
      "stateMutability": "view",
      "type": "function"
    },
    {
      "inputs": [],
      "name": "price",
      "outputs": [
        {
          "internalType": "uint256",
          "name": "",
          "type": "uint256"
        }
      ],
      "stateMutability": "view",
      "type": "function"
    },
    {
      "inputs": [
        {
          "internalType": "uint256",
          "name": "mod",
          "type": "uint256"
        }
      ],
      "name": "random",
      "outputs": [
        {
          "internalType": "uint256",
          "name": "",
          "type": "uint256"
        }
      ],
      "stateMutability": "nonpayable",
      "type": "function"
    },
    {
      "inputs": [
        {
          "internalType": "uint256",
          "name": "a",
          "type": "uint256"
        },
        {
          "internalType": "uint256",
          "name": "b",
          "type": "uint256"
        }
      ],
      "name": "randomBetween",
      "outputs": [
        {
          "internalType": "uint256",
          "name": "",
          "type": "uint256"
        }
      ],
      "stateMutability": "nonpayable",
      "type": "function"
    },
    {
      "inputs": [],
      "name": "receiver",
      "outputs": [
        {
          "internalType": "address payable",
          "name": "",
          "type": "address"
        }
      ],
      "stateMutability": "view",
      "type": "function"
    },
    {
      "inputs": [],
      "name": "receiver2",
      "outputs": [
        {
          "internalType": "address payable",
          "name": "",
          "type": "address"
        }
      ],
      "stateMutability": "view",
      "type": "function"
    },
    {
      "inputs": [
        {
          "internalType": "address",
          "name": "from",
          "type": "address"
        },
        {
          "internalType": "address",
          "name": "to",
          "type": "address"
        },
        {
          "internalType": "uint256",
          "name": "tokenId",
          "type": "uint256"
        }
      ],
      "name": "safeTransferFrom",
      "outputs": [],
      "stateMutability": "nonpayable",
      "type": "function"
    },
    {
      "inputs": [
        {
          "internalType": "address",
          "name": "from",
          "type": "address"
        },
        {
          "internalType": "address",
          "name": "to",
          "type": "address"
        },
        {
          "internalType": "uint256",
          "name": "tokenId",
          "type": "uint256"
        },
        {
          "internalType": "bytes",
          "name": "data",
          "type": "bytes"
        }
      ],
      "name": "safeTransferFrom",
      "outputs": [],
      "stateMutability": "nonpayable",
      "type": "function"
    },
    {
      "inputs": [
        {
          "internalType": "address",
          "name": "operator",
          "type": "address"
        },
        {
          "internalType": "bool",
          "name": "approved",
          "type": "bool"
        }
      ],
      "name": "setApprovalForAll",
      "outputs": [],
      "stateMutability": "nonpayable",
      "type": "function"
    },
    {
      "inputs": [],
      "name": "symbol",
      "outputs": [
        {
          "internalType": "string",
          "name": "",
          "type": "string"
        }
      ],
      "stateMutability": "view",
      "type": "function"
    },
    {
      "inputs": [
        {
          "internalType": "uint256",
          "name": "tokenId",
          "type": "uint256"
        }
      ],
      "name": "tokenURI",
      "outputs": [
        {
          "internalType": "string",
          "name": "",
          "type": "string"
        }
      ],
      "stateMutability": "view",
      "type": "function"
    },
    {
      "inputs": [
        {
          "internalType": "address",
          "name": "from",
          "type": "address"
        },
        {
          "internalType": "address",
          "name": "to",
          "type": "address"
        },
        {
          "internalType": "uint256",
          "name": "tokenId",
          "type": "uint256"
        }
      ],
      "name": "transferFrom",
      "outputs": [],
      "stateMutability": "nonpayable",
      "type": "function"
    },
    {
      "inputs": [
        {
          "internalType": "bytes4",
          "name": "interfaceId",
          "type": "bytes4"
        }
      ],
      "name": "supportsInterface",
      "outputs": [
        {
          "internalType": "bool",
          "name": "",
          "type": "bool"
        }
      ],
      "stateMutability": "view",
      "type": "function"
    },
    {
      "inputs": [],
      "name": "mint",
      "outputs": [
        {
          "internalType": "uint256",
          "name": "",
          "type": "uint256"
        }
      ],
      "stateMutability": "nonpayable",
      "type": "function"
    },
    {
      "inputs": [
        {
          "internalType": "uint256",
          "name": "quantity",
          "type": "uint256"
        }
      ],
      "name": "payableMint",
      "outputs": [
        {
          "internalType": "uint256",
          "name": "",
          "type": "uint256"
        }
      ],
      "stateMutability": "payable",
      "type": "function"
    },
    {
      "inputs": [
        {
          "internalType": "string",
          "name": "_folderURI",
          "type": "string"
        }
      ],
      "name": "setFolderURI",
      "outputs": [],
      "stateMutability": "nonpayable",
      "type": "function"
    },
    {
      "inputs": [],
      "name": "totalLeft",
      "outputs": [
        {
          "internalType": "uint256",
          "name": "",
          "type": "uint256"
        }
      ],
      "stateMutability": "view",
      "type": "function"
    },
    {
      "inputs": [
        {
          "internalType": "uint256",
          "name": "newPrice",
          "type": "uint256"
        }
      ],
      "name": "setPrice",
      "outputs": [],
      "stateMutability": "nonpayable",
      "type": "function"
    },
    {
      "inputs": [],
      "name": "currentPrice",
      "outputs": [
        {
          "internalType": "uint256",
          "name": "",
          "type": "uint256"
        }
      ],
      "stateMutability": "view",
      "type": "function"
    }
  ],
  "bytecode": "0x60806040523480156200001157600080fd5b5060405162002133380380620021338339810160408190526200003491620002f4565b604080518082018252600280825261141360f21b60208084018281528551808701909652928552840152815191929162000071916000916200020b565b508051620000879060019060208401906200020b565b505060016006555042600755600b80546001600160a01b031990811673719641651a6702c5983c9930688dd6e4a408890317909155600c805482167381e1701e393f28d64c1085399f7d845bf32a73a01790556008829055600d8054909116331790558151620000ff90600a9060208501906200020b565b50604080516103c08101825260018152600260208201526003918101919091526004606082015260056080820152600660a0820152600760c0820152600860e082015260096101008201819052600a610120830152600b610140830152600c610160830152600d610180830152600e6101a0830152600f6101c083015260106101e08301526011610200830152601261022083015260136102408301526014610260830152601561028083015260166102a083015260176102c083015260186102e08301526019610300830152601a610320830152601b610340830152601c610360830152601d610380830152601e6103a083018190526200020292906200029a565b5050506200042c565b8280546200021990620003d9565b90600052602060002090601f0160209004810192826200023d576000855562000288565b82601f106200025857805160ff191683800117855562000288565b8280016001018555821562000288579182015b82811115620002885782518255916020019190600101906200026b565b5062000296929150620002dd565b5090565b82805482825590600052602060002090810192821562000288579160200282015b8281111562000288578251829060ff16905591602001919060010190620002bb565b5b80821115620002965760008155600101620002de565b600080604083850312156200030857600080fd5b82516001600160401b03808211156200032057600080fd5b818501915085601f8301126200033557600080fd5b8151818111156200034a576200034a62000416565b604051601f8201601f19908116603f0116810190838211818310171562000375576200037562000416565b816040528281526020935088848487010111156200039257600080fd5b600091505b82821015620003b6578482018401518183018501529083019062000397565b82821115620003c85760008484830101525b969092015195979596505050505050565b600181811c90821680620003ee57607f821691505b602082108114156200041057634e487b7160e01b600052602260045260246000fd5b50919050565b634e487b7160e01b600052604160045260246000fd5b611cf7806200043c6000396000f3fe6080604052600436106101815760003560e01c806391b7f5ed116100d1578063b60152041161008a578063c87b56dd11610064578063c87b56dd14610442578063e3aa94c914610462578063e985e9c514610482578063f7260d3e146104cb57600080fd5b8063b6015204146103e2578063b863bd3714610402578063b88d4fde1461042257600080fd5b806391b7f5ed1461034f57806395d89b411461036f5780639d1b464a14610384578063a035b1fe14610399578063a22cb465146103af578063b080d20b146103cf57600080fd5b806342842e0e1161013e5780635808ce8b116101185780635808ce8b146102cf5780636352211e146102ef57806370a082311461030f5780638da5cb5b1461032f57600080fd5b806342842e0e1461027a57806342bc34aa1461029a57806351777020146102ba57600080fd5b806301ffc9a71461018657806306fdde03146101bb578063081812fc146101dd578063095ea7b3146102155780631249c58b1461023757806323b872dd1461025a575b600080fd5b34801561019257600080fd5b506101a66101a136600461190d565b6104eb565b60405190151581526020015b60405180910390f35b3480156101c757600080fd5b506101d06104fc565b6040516101b29190611a63565b3480156101e957600080fd5b506101fd6101f8366004611990565b61058e565b6040516001600160a01b0390911681526020016101b2565b34801561022157600080fd5b506102356102303660046118e3565b6105b5565b005b34801561024357600080fd5b5061024c6106d0565b6040519081526020016101b2565b34801561026657600080fd5b506102356102753660046117ef565b610707565b34801561028657600080fd5b506102356102953660046117ef565b610738565b3480156102a657600080fd5b5061024c6102b5366004611990565b610753565b3480156102c657600080fd5b5060095461024c565b3480156102db57600080fd5b506102356102ea366004611947565b610774565b3480156102fb57600080fd5b506101fd61030a366004611990565b6107b5565b34801561031b57600080fd5b5061024c61032a3660046117a1565b610815565b34801561033b57600080fd5b50600d546101fd906001600160a01b031681565b34801561035b57600080fd5b5061023561036a366004611990565b61089b565b34801561037b57600080fd5b506101d06108ca565b34801561039057600080fd5b5060085461024c565b3480156103a557600080fd5b5061024c60085481565b3480156103bb57600080fd5b506102356103ca3660046118a7565b6108d9565b61024c6103dd366004611990565b6108e4565b3480156103ee57600080fd5b50600c546101fd906001600160a01b031681565b34801561040e57600080fd5b5061024c61041d366004611990565b610be1565b34801561042e57600080fd5b5061023561043d36600461182b565b610c55565b34801561044e57600080fd5b506101d061045d366004611990565b610c8d565b34801561046e57600080fd5b5061024c61047d3660046119a9565b610cf4565b34801561048e57600080fd5b506101a661049d3660046117bc565b6001600160a01b03918216600090815260056020908152604080832093909416825291909152205460ff1690565b3480156104d757600080fd5b50600b546101fd906001600160a01b031681565b60006104f682610d0e565b92915050565b60606000805461050b90611bd3565b80601f016020809104026020016040519081016040528092919081815260200182805461053790611bd3565b80156105845780601f1061055957610100808354040283529160200191610584565b820191906000526020600020905b81548152906001019060200180831161056757829003601f168201915b5050505050905090565b600061059982610d5e565b506000908152600460205260409020546001600160a01b031690565b60006105c0826107b5565b9050806001600160a01b0316836001600160a01b031614156106335760405162461bcd60e51b815260206004820152602160248201527f4552433732313a20617070726f76616c20746f2063757272656e74206f776e656044820152603960f91b60648201526084015b60405180910390fd5b336001600160a01b038216148061064f575061064f813361049d565b6106c15760405162461bcd60e51b815260206004820152603e60248201527f4552433732313a20617070726f76652063616c6c6572206973206e6f7420746f60448201527f6b656e206f776e6572206e6f7220617070726f76656420666f7220616c6c0000606482015260840161062a565b6106cb8383610dc0565b505050565b600b546000906001600160a01b031633146106fd5760405162461bcd60e51b815260040161062a90611ac8565b60006104f6610e2e565b6107113382610e4a565b61072d5760405162461bcd60e51b815260040161062a90611af7565b6106cb838383610ec9565b6106cb83838360405180602001604052806000815250610c55565b6009818154811061076357600080fd5b600091825260209091200154905081565b600d546001600160a01b0316331461079e5760405162461bcd60e51b815260040161062a90611ac8565b80516107b190600a90602084019061167b565b5050565b6000818152600260205260408120546001600160a01b0316806104f65760405162461bcd60e51b8152602060048201526018602482015277115490cdcc8c4e881a5b9d985b1a59081d1bdad95b88125160421b604482015260640161062a565b60006001600160a01b03821661087f5760405162461bcd60e51b815260206004820152602960248201527f4552433732313a2061646472657373207a65726f206973206e6f7420612076616044820152683634b21037bbb732b960b91b606482015260840161062a565b506001600160a01b031660009081526003602052604090205490565b600d546001600160a01b031633146108c55760405162461bcd60e51b815260040161062a90611ac8565b600855565b60606001805461050b90611bd3565b6107b1338383611065565b6000600260065414156109395760405162461bcd60e51b815260206004820152601f60248201527f5265656e7472616e637947756172643a207265656e7472616e742063616c6c00604482015260640161062a565b60026006556008546109b35760405162461bcd60e51b815260206004820152603960248201527f5065727365613a205468652061646d696e20646f65736e74206861766520612060448201527f707269636520666f72207468697320636f6c6c656374696f6e00000000000000606482015260840161062a565b600854341015610a055760405162461bcd60e51b815260206004820152601a60248201527f5065727365613a2042616c616e6365206e6f7420656e6f756768000000000000604482015260640161062a565b81600114610a555760405162461bcd60e51b815260206004820152601a60248201527f5065727365613a205175616e74697479206e6f7420657175616c000000000000604482015260640161062a565b600b546000906001600160a01b0316612710610a7334611c20611b71565b610a7d9190611b5d565b604051600081818185875af1925050503d8060008114610ab9576040519150601f19603f3d011682016040523d82523d6000602084013e610abe565b606091505b5050905080610b0f5760405162461bcd60e51b815260206004820152601d60248201527f506572736561203a204661696c656420746f2073656e64204574686572000000604482015260640161062a565b600c546000906001600160a01b0316612710610b2d34610708611b71565b610b379190611b5d565b604051600081818185875af1925050503d8060008114610b73576040519150601f19603f3d011682016040523d82523d6000602084013e610b78565b606091505b5050905080610bc95760405162461bcd60e51b815260206004820152601d60248201527f506572736561203a204661696c656420746f2073656e64204574686572000000604482015260640161062a565b6000610bd3610e2e565b600160065595945050505050565b6007805460009182610bf283611c0e565b9190505550816007544433604051602001610c3293929190928352602083019190915260601b6bffffffffffffffffffffffff1916604082015260540190565b6040516020818303038152906040528051906020012060001c6104f69190611c29565b610c5f3383610e4a565b610c7b5760405162461bcd60e51b815260040161062a90611af7565b610c8784848484611134565b50505050565b6060610c9882610d5e565b6000610ca2611167565b90506000815111610cc25760405180602001604052806000815250610ced565b80610ccc84611176565b604051602001610cdd9291906119f7565b6040516020818303038152906040525b9392505050565b600081610d0461041d8286611b90565b610ced9190611b45565b60006001600160e01b031982166380ac58cd60e01b1480610d3f57506001600160e01b03198216635b5e139f60e01b145b806104f657506301ffc9a760e01b6001600160e01b03198316146104f6565b6000818152600260205260409020546001600160a01b0316610dbd5760405162461bcd60e51b8152602060048201526018602482015277115490cdcc8c4e881a5b9d985b1a59081d1bdad95b88125160421b604482015260640161062a565b50565b600081815260046020526040902080546001600160a01b0319166001600160a01b0384169081179091558190610df5826107b5565b6001600160a01b03167f8c5be1e5ebec7d5bd14f71427d1e84f3dd0314c0f7b2291e5b200ac8c7c3b92560405160405180910390a45050565b600080610e39611274565b9050610e45338261142c565b919050565b600080610e56836107b5565b9050806001600160a01b0316846001600160a01b03161480610e9d57506001600160a01b0380821660009081526005602090815260408083209388168352929052205460ff165b80610ec15750836001600160a01b0316610eb68461058e565b6001600160a01b0316145b949350505050565b826001600160a01b0316610edc826107b5565b6001600160a01b031614610f405760405162461bcd60e51b815260206004820152602560248201527f4552433732313a207472616e736665722066726f6d20696e636f72726563742060448201526437bbb732b960d91b606482015260840161062a565b6001600160a01b038216610fa25760405162461bcd60e51b8152602060048201526024808201527f4552433732313a207472616e7366657220746f20746865207a65726f206164646044820152637265737360e01b606482015260840161062a565b610fad600082610dc0565b6001600160a01b0383166000908152600360205260408120805460019290610fd6908490611b90565b90915550506001600160a01b0382166000908152600360205260408120805460019290611004908490611b45565b909155505060008181526002602052604080822080546001600160a01b0319166001600160a01b0386811691821790925591518493918716917fddf252ad1be2c89b69c2b068fc378daa952ba7f163c4a11628f55a4df523b3ef91a4505050565b816001600160a01b0316836001600160a01b031614156110c75760405162461bcd60e51b815260206004820152601960248201527f4552433732313a20617070726f766520746f2063616c6c657200000000000000604482015260640161062a565b6001600160a01b03838116600081815260056020908152604080832094871680845294825291829020805460ff191686151590811790915591519182527f17307eab39ab6107e8899845ad3d59bd9653f200f220920489ca2b5937696c31910160405180910390a3505050565b61113f848484610ec9565b61114b8484848461156e565b610c875760405162461bcd60e51b815260040161062a90611a76565b6060600a805461050b90611bd3565b60608161119a5750506040805180820190915260018152600360fc1b602082015290565b8160005b81156111c457806111ae81611c0e565b91506111bd9050600a83611b5d565b915061119e565b60008167ffffffffffffffff8111156111df576111df611c95565b6040519080825280601f01601f191660200182016040528015611209576020820181803683370190505b5090505b8415610ec15761121e600183611b90565b915061122b600a86611c29565b611236906030611b45565b60f81b81838151811061124b5761124b611c7f565b60200101906001600160f81b031916908160001a90535061126d600a86611b5d565b945061120d565b6000808061128160095490565b116112d85760405162461bcd60e51b815260206004820152602160248201527f5065727365613a204e6f7420666f756e642069647320696e20746865206c69736044820152601d60fa1b606482015260840161062a565b60016112e360095490565b111561139e5760006112fe6112f760095490565b6001610cf4565b90506009818154811061131357611313611c7f565b906000526020600020015491506009600161132d60095490565b6113379190611b90565b8154811061134757611347611c7f565b90600052602060002001546009828154811061136557611365611c7f565b600091825260209091200155600980548061138257611382611c69565b60019003818190600052602060002001600090559055506113e7565b60096000815481106113b2576113b2611c7f565b9060005260206000200154905060098054806113d0576113d0611c69565b600190038181906000526020600020016000905590555b60008111610e455760405162461bcd60e51b8152602060048201526012602482015271139bdd08199bdd5b99081d1bdad95b881a5960721b604482015260640161062a565b6001600160a01b0382166114825760405162461bcd60e51b815260206004820181905260248201527f4552433732313a206d696e7420746f20746865207a65726f2061646472657373604482015260640161062a565b6000818152600260205260409020546001600160a01b0316156114e75760405162461bcd60e51b815260206004820152601c60248201527f4552433732313a20746f6b656e20616c7265616479206d696e74656400000000604482015260640161062a565b6001600160a01b0382166000908152600360205260408120805460019290611510908490611b45565b909155505060008181526002602052604080822080546001600160a01b0319166001600160a01b03861690811790915590518392907fddf252ad1be2c89b69c2b068fc378daa952ba7f163c4a11628f55a4df523b3ef908290a45050565b60006001600160a01b0384163b1561167057604051630a85bd0160e11b81526001600160a01b0385169063150b7a02906115b2903390899088908890600401611a26565b602060405180830381600087803b1580156115cc57600080fd5b505af19250505080156115fc575060408051601f3d908101601f191682019092526115f99181019061192a565b60015b611656573d80801561162a576040519150601f19603f3d011682016040523d82523d6000602084013e61162f565b606091505b50805161164e5760405162461bcd60e51b815260040161062a90611a76565b805181602001fd5b6001600160e01b031916630a85bd0160e11b149050610ec1565b506001949350505050565b82805461168790611bd3565b90600052602060002090601f0160209004810192826116a957600085556116ef565b82601f106116c257805160ff19168380011785556116ef565b828001600101855582156116ef579182015b828111156116ef5782518255916020019190600101906116d4565b506116fb9291506116ff565b5090565b5b808211156116fb5760008155600101611700565b600067ffffffffffffffff8084111561172f5761172f611c95565b604051601f8501601f19908116603f0116810190828211818310171561175757611757611c95565b8160405280935085815286868601111561177057600080fd5b858560208301376000602087830101525050509392505050565b80356001600160a01b0381168114610e4557600080fd5b6000602082840312156117b357600080fd5b610ced8261178a565b600080604083850312156117cf57600080fd5b6117d88361178a565b91506117e66020840161178a565b90509250929050565b60008060006060848603121561180457600080fd5b61180d8461178a565b925061181b6020850161178a565b9150604084013590509250925092565b6000806000806080858703121561184157600080fd5b61184a8561178a565b93506118586020860161178a565b925060408501359150606085013567ffffffffffffffff81111561187b57600080fd5b8501601f8101871361188c57600080fd5b61189b87823560208401611714565b91505092959194509250565b600080604083850312156118ba57600080fd5b6118c38361178a565b9150602083013580151581146118d857600080fd5b809150509250929050565b600080604083850312156118f657600080fd5b6118ff8361178a565b946020939093013593505050565b60006020828403121561191f57600080fd5b8135610ced81611cab565b60006020828403121561193c57600080fd5b8151610ced81611cab565b60006020828403121561195957600080fd5b813567ffffffffffffffff81111561197057600080fd5b8201601f8101841361198157600080fd5b610ec184823560208401611714565b6000602082840312156119a257600080fd5b5035919050565b600080604083850312156119bc57600080fd5b50508035926020909101359150565b600081518084526119e3816020860160208601611ba7565b601f01601f19169290920160200192915050565b60008351611a09818460208801611ba7565b835190830190611a1d818360208801611ba7565b01949350505050565b6001600160a01b0385811682528416602082015260408101839052608060608201819052600090611a59908301846119cb565b9695505050505050565b602081526000610ced60208301846119cb565b60208082526032908201527f4552433732313a207472616e7366657220746f206e6f6e20455243373231526560408201527131b2b4bb32b91034b6b83632b6b2b73a32b960711b606082015260800190565b6020808252601590820152742cb7ba903737ba1030b932903a34329037bbb732b960591b604082015260600190565b6020808252602e908201527f4552433732313a2063616c6c6572206973206e6f7420746f6b656e206f776e6560408201526d1c881b9bdc88185c1c1c9bdd995960921b606082015260800190565b60008219821115611b5857611b58611c3d565b500190565b600082611b6c57611b6c611c53565b500490565b6000816000190483118215151615611b8b57611b8b611c3d565b500290565b600082821015611ba257611ba2611c3d565b500390565b60005b83811015611bc2578181015183820152602001611baa565b83811115610c875750506000910152565b600181811c90821680611be757607f821691505b60208210811415611c0857634e487b7160e01b600052602260045260246000fd5b50919050565b6000600019821415611c2257611c22611c3d565b5060010190565b600082611c3857611c38611c53565b500690565b634e487b7160e01b600052601160045260246000fd5b634e487b7160e01b600052601260045260246000fd5b634e487b7160e01b600052603160045260246000fd5b634e487b7160e01b600052603260045260246000fd5b634e487b7160e01b600052604160045260246000fd5b6001600160e01b031981168114610dbd57600080fdfea2646970667358221220c11d4643676f9acafa25bfa368fea752935d7248397c1fe8997dda3d9446d23464736f6c63430008070033",
  "immutableReferences": {},
  "source": "// SPDX-License-Identifier: MIT\r\npragma solidity ^0.8.6;\r\n\r\nimport \"@openzeppelin/contracts/token/ERC721/ERC721.sol\";\r\nimport \"@openzeppelin/contracts/access/AccessControlEnumerable.sol\";\r\nimport \"@openzeppelin/contracts/security/ReentrancyGuard.sol\";\r\nimport \"@openzeppelin/contracts/utils/cryptography/SignatureChecker.sol\";\r\nimport \"@openzeppelin/contracts/utils/Strings.sol\";\r\nimport \"@openzeppelin/contracts/utils/Counters.sol\";\r\nimport \"./Randomize.sol\";\r\nimport \"./MintList.sol\";\r\n\r\ncontract  ProteinaLabCollection is ERC721, ReentrancyGuard, Randomize() {\r\n\r\n    uint256 public price;\r\n    uint256[] public  _listTokenIds;\r\n    string  folderURI;\r\n\r\n    address payable public receiver;\r\n    address payable public receiver2;\r\n    address  public owner;\r\n\r\n    function supportsInterface(bytes4 interfaceId) public view virtual override(ERC721) returns (bool) {\r\n        return super.supportsInterface(interfaceId);\r\n    }\r\n    /**\r\n     * @dev Initializes the contract by setting a `name` and a `symbol` to the token.\r\n     */\r\n    constructor(string memory _folderURI, uint256 _price) ERC721(\"PL\",\"PL\") {\r\n        receiver =  payable(address(0x719641651A6702C5983c9930688DD6e4A4088903)); // 72\r\n        receiver2 = payable(address(0x81E1701e393f28D64C1085399f7D845bf32a73A0)); // 18\r\n        price = _price;\r\n        owner = msg.sender;\r\n        // setPrice(10000000000000000000);\r\n        folderURI =   _folderURI;\r\n        _listTokenIds = [1, 2, 3, 4, 5, 6, 7, 8, 9, 10, 11, 12, 13, 14, 15, 16, 17, 18, 19, 20, 21, 22, 23, 24, 25, 26, 27, 28, 29, 30];\r\n    }\r\n\r\n\r\n    /**\r\n     * @dev Safely mints a token. Increments 'tokenId' by 1 and calls super._safeMint()\r\n     *\r\n     */\r\n\r\n    function mint() public returns(uint256){\r\n        require(msg.sender == receiver,\"You not are the owner\");\r\n        uint256 newItemId = safeMint();\r\n        return newItemId;\r\n    }\r\n\r\n    function safeMint() internal returns(uint256){\r\n        uint256 newItemId = getCurreentId();\r\n        _mint(msg.sender, newItemId);\r\n        return newItemId;\r\n    }\r\n\r\n    function payableMint(uint256 quantity) public nonReentrant payable returns (uint256) {\r\n        require(price > 0, \"Persea: The admin doesnt have a price for this collection\");\r\n        require(msg.value >= price, \"Persea: Balance not enough\");\r\n        require(quantity == 1, \"Persea: Quantity not equal\");\r\n        (bool sent, ) = receiver.call{ value :  ((msg.value * 7200) / 10000) }(\"\");\r\n        require(sent, \"Persea : Failed to send Ether\");\r\n        (bool sent2, ) = receiver2.call{ value :  ((msg.value * 1800) / 10000) }(\"\");\r\n        require(sent2, \"Persea : Failed to send Ether\");\r\n        uint256 newItemId = safeMint();\r\n        return newItemId;\r\n    }\r\n\r\n    function getCurreentId() internal  returns (uint256){\r\n        uint256 newItemId = 0;\r\n        require(totalLeft() > 0, \"Persea: Not found ids in the list\");\r\n        if (totalLeft() > 1) {\r\n            uint256 random = randomBetween(totalLeft(),1);\r\n            newItemId = _listTokenIds[random];\r\n            _listTokenIds[random] =  _listTokenIds[totalLeft() - 1];\r\n            _listTokenIds.pop();\r\n        } else {\r\n            newItemId = _listTokenIds[0];\r\n            _listTokenIds.pop();\r\n        }\r\n        require(newItemId > 0, \"Not found token id\");\r\n        return newItemId;\r\n    }\r\n\r\n    function setFolderURI(string memory _folderURI) public {\r\n        require(msg.sender == owner,\"You not are the owner\");\r\n        folderURI = _folderURI;\r\n    }\r\n\r\n    function _baseURI() internal view virtual override returns(string memory) {\r\n        //string memory baseURI = _baseURI();\r\n        return folderURI;\r\n    }\r\n\r\n    function totalLeft() public view returns(uint256) {\r\n        return _listTokenIds.length;\r\n    }\r\n\r\n    function setPrice(uint256 newPrice) public {\r\n        require(msg.sender == owner,\"You not are the owner\");\r\n        price = newPrice;\r\n    }\r\n\r\n    function currentPrice() public view returns(uint256) {\r\n        return price;\r\n    }\r\n}\r\n",
  "sourcePath": "D:\\avocado\\persea_ipfs\\persea-contracts\\contracts\\ProteinaLabCollection.sol",
  "compiler": {
    "name": "solc",
    "version": "0.8.7+commit.e28d00a7.Emscripten.clang"
  },
  "schemaVersion": "3.4.5",
  "updatedAt": "2022-11-12T17:21:19.740Z",
  "devdoc": {
    "kind": "dev",
    "methods": {
      "approve(address,uint256)": {
        "details": "See {IERC721-approve}."
      },
      "balanceOf(address)": {
        "details": "See {IERC721-balanceOf}."
      },
      "constructor": {
        "details": "Initializes the contract by setting a `name` and a `symbol` to the token."
      },
      "getApproved(uint256)": {
        "details": "See {IERC721-getApproved}."
      },
      "isApprovedForAll(address,address)": {
        "details": "See {IERC721-isApprovedForAll}."
      },
      "mint()": {
        "details": "Safely mints a token. Increments 'tokenId' by 1 and calls super._safeMint()"
      },
      "name()": {
        "details": "See {IERC721Metadata-name}."
      },
      "ownerOf(uint256)": {
        "details": "See {IERC721-ownerOf}."
      },
      "safeTransferFrom(address,address,uint256)": {
        "details": "See {IERC721-safeTransferFrom}."
      },
      "safeTransferFrom(address,address,uint256,bytes)": {
        "details": "See {IERC721-safeTransferFrom}."
      },
      "setApprovalForAll(address,bool)": {
        "details": "See {IERC721-setApprovalForAll}."
      },
      "supportsInterface(bytes4)": {
        "details": "See {IERC165-supportsInterface}."
      },
      "symbol()": {
        "details": "See {IERC721Metadata-symbol}."
      },
      "tokenURI(uint256)": {
        "details": "See {IERC721Metadata-tokenURI}."
      },
      "transferFrom(address,address,uint256)": {
        "details": "See {IERC721-transferFrom}."
      }
    },
    "version": 1
  },
  "userdoc": {
    "kind": "user",
    "methods": {},
    "version": 1
  }
}